:020000040800F2
:1000000020CC002021020008290200080703000874
:100010002D0200082F020008310200080000000035
:100020000000000000000000000000003302000893
:1000300035020008000000008F020008ED450008AE
:100040003B0200083B0200083B0200083B0200089C
:100050003B0200083B0200083B0200083B0200088C
:100060003B0200083B0200083B0200083B0200087C
:100070003B0200083B0200083B0200083B0200086C
:100080003B0200083B0200083B0200083B0200085C
:100090003B0200083B0200083B0200088D1E0008DE
:1000A0003B0200083B0200083B0200083B0200083C
:1000B0003B0200083B0200083B0200083B0200082C
:1000C0003B0200083B0200083B0200083B0200081C
:1000D0003B0200083B0200083B020008F948000808
:1000E0002D1E00083B0200083B0200083B020008EE
:1000F0003B0200083B0200083B0200083B020008EC
:100100003B0200083B0200083B0200083B020008DB
:100110003B0200083B0200083B0200083B020008CB
:100120003B0200083B0200083B0200083B020008BB
:1001300000F002F800F065F80AA090E8000C824494
:100140008344AAF10107DA4501D100F05AF8AFF271
:10015000090EBAE80F0013F0010F18BFFB1A43F0A5
:1001600001031847BCAF0000DCAF00000A444FF0A9
:10017000000C10F8013B13F0070408BF10F8014B06
:100180001D1108BF10F8015B641E05D010F8016B4B
:10019000641E01F8016BF9D113F0080F1EBF10F8AF
:1001A000014BAD1C0C1B09D16D1E58BF01F801CBD2
:1001B000FAD505E014F8016B01F8016B6D1EF9D555
:1001C0009142D6D37047000000230024002500266A
:1001D000103A28BF78C1FBD8520728BF30C148BFAA
:1001E0000B607047642900F02781632900F0758354
:1001F000732900F07A83002070471FB51FBD10B52A
:1002000010BD00F076FB1146FFF7F7FF00F0ABFBE7
:1002100000F094FB03B4FFF7F2FF03BC00F09CFB7B
:100220000948804709480047FEE7FEE7FEE7FEE78A
:10023000FEE7FEE7FEE7FEE7FEE7FEE704480549C6
:10024000054A064B704700000146000831010008CE
:1002500020C6002020CC002020C8002020C800207C
:10026000EFF3108072B6704780F310887047334AFE
:100270001368012B04D04FF001031360304A106063
:10028000304A116030484FF0805101607047EFF301
:10029000108272B62948016891B14FF000010160E7
:1002A0002748016829B1EFF3098121E9F00F0068BF
:1002B0000160244909680968B1E8F00F81F30988F1
:1002C00082F310884EF0040E70471E4908601C49E6
:1002D0004FF00000086019494FF0010008601B480A
:1002E0004FF47F01D0F8002041EA02010160164876
:1002F0004FF08051016016480068006880F308885C
:1003000061B662B670471EF0040F0CBFEFF30880B1
:10031000EFF3098020E9F00F40F804ED1EF0040F20
:100320000CBF80F3088880F3098800B506F0FAFB5B
:100330005DF804EB4EF0040E70470000140200203C
:100340000C0200201002002004ED00E020ED00E08F
:1003500008ED00E00FB41CB5074B06AA7B446946C4
:100360000090059800F097FA0020694600F0A6FA80
:100370001CBC5DF814FB00005D0500002DE9F04198
:100380000E460446002020622046E168884730B3CC
:10039000252805D0D4E901219047206A401CF2E7C6
:1003A000E168204600278847050018D0A5F14100E4
:1003B000192802D820354FF40067324629462046D6
:1003C0002760FFF70FFF40B1012804D0F61D26F08B
:1003D00007060836D8E7361DD6E72846DAE7206A4A
:1003E000BDE8F08170B50C460546012A05D0287895
:1003F000800600D5EA69002302E0012305E05B1CCA
:10040000934202D2E05C0028F9D1A869E618C01A2C
:10041000A861286A184428622846AFF3008004E0E7
:10042000D5E9012114F8010B9047B442F8D32846CE
:10043000AFF3008070BD00002DE9F04106460024B6
:1004400010687529314616A510D0AFF3008000283A
:1004500002DA404213A507E031688A0701D512A5E8
:1004600002E0490704D511A5012401E0AFF30080A3
:1004700000210A2206F1240709E0B0FBF2FCB0FBE0
:10048000F2F302FB1C00303078541846491C002857
:10049000F3D123462A463046BDE8F04100F09DB92D
:1004A000000000002D0000002B00000020000000D4
:1004B00030B505460B462A4613F8014B12F8010BDE
:1004C00008B1A042F8D01CB1002802D06D1CF1E7A1
:1004D000284630BD40EA0103024630B59B0710D1E3
:1004E0004FF0013400E008C208C91D1B9D4315EA06
:1004F000C41FF8D013F0FF0102F8011B0DD01B0A36
:10050000F8E711F8013B002B02F8013B05D011F888
:10051000013B002B02F8013BF3D130BD10B5431C69
:1005200002E010F8011B71B18107FAD14FF00132DE
:1005300002C88C1A8C4314EAC211F9D0C01A0A06F8
:1005400003D0C01E10BDC01A10BD0A0401D0801E09
:1005500010BD0902FCD0401E10BD40EA010370B579
:100560009B072ED14FF00136042A2AD308C810C9A0
:100570009D1B9D43121F15EAC61517D0D8B2E1B2D4
:10058000401A50EA056110D198B2A1B2401A50EA5F
:1005900005410AD123F07F4024F07F41401A50EA00
:1005A000052102D1180EA0EB146070BDA342DBD070
:1005B00018BA21BA884201D9012070BD4FF0FF302E
:1005C00070BD0AB9002070BD10F8013B11F8014B55
:1005D00063B1A3420AD1521E08D010F8013B11F8B2
:1005E000014B1BB1A34201D1521EEDD1181B70BDAE
:1005F000421E12F8013F002BFBD111F8013B002BEA
:1006000002F8013BF9D1704710B5203AC0F00B80D9
:10061000B1E81850203AA0E81850B1E81850A0E806
:100620001850BFF4F5AF5FEA027C24BFB1E8185060
:10063000A0E8185044BF18C918C0BDE810405FEAD0
:10064000827C24BF51F8043B40F8043B08BF70474C
:10065000D20728BF31F8023B48BF11F8012B28BF51
:1006600020F8023B48BF00F8012B70474FF0000212
:100670000429C0F0128010F0030C00F01B80CCF1B4
:10068000040CBCF1020F18BF00F8012BA8BF20F822
:10069000022BA1EB0C0100F00DB85FEAC17C24BF76
:1006A00000F8012B00F8012B48BF00F8012B704720
:1006B0004FF0000200B5134694469646203922BFFB
:1006C000A0E80C50A0E80C50B1F12001BFF4F7AF46
:1006D000090728BFA0E80C5048BF0CC05DF804EB28
:1006E000890028BF40F8042B08BF704748BF20F896
:1006F000022B11F0804F18BF00F8012B704710B586
:10070000044610F0030F08BF11F0030F40F01580EE
:100710004FF0013E121FC0F20E8051F8043BA3EBD4
:100720000E0C2CEA030C1CEACE1C08BF40F8043B5C
:10073000F0D0A1F1040102F10402521E08DB11F80D
:10074000013B002B00F8013BF7D11146FFF78EFF6C
:10075000204610BD4FF0013C50F8042B51F8043BEB
:100760009A4221D1A2EB0C03934313EACC1317D185
:1007700050F8042B51F8043B9A4215D1A2EB0C031C
:10078000934313EACC130BD150F8042B51F8043BDC
:100790009A4209D1A2EB0C03934313EACC13DBD0AA
:1007A0004FF00000704700BFD01A01BAB1FA81F1D2
:1007B00001F0180122FA01F0CB40C1F12001DBB2B7
:1007C000C0B2C01A2CFA01F3D11A914311EAC31135
:1007D000E6D170477047704770472DE9F0470D46E6
:1007E00099469246044600F124080168880604D51B
:1007F000E06921F01001216000E00120A84201DD44
:10080000471B00E00027A1697A1902EB0900081ACA
:10081000A0612078C00602D42046AFF300800026F5
:1008200008E0D4E901211AF806009047206A401C2C
:10083000761C20624E45F4DB2078C0060AD520469F
:10084000AFF3008006E0D4E9012130209047206A10
:10085000401C2062381EA7F10107F4DC07E0D4E950
:10086000012118F805009047206A401C2062281ECC
:10087000A5F10105F3DC2046AFF3008020780006E7
:1008800002D50220BDE8F0870120FBE701694A1C80
:1008900002610878704700B58FB0CDE901310021C1
:1008A000059105497944CDE9031011466846FFF7E3
:1008B00065FD0FB000BD0000E5FFFFFF0A6802F80C
:1008C000010B0A60704710B5436913B1AFF30080A4
:1008D00001E0FFF787FD012010BD127800F124012F
:1008E0000A7000224A700122EDE711684FF0FF32D2
:1008F000E9E7754600F02CF8AE4605006946534618
:1009000020F00700854618B020B5FFF797FCBDE83A
:1009100020404FF000064FF000074FF000084FF066
:10092000000B21F00701AC46ACE8C009ACE8C009F7
:10093000ACE8C009ACE8C0098D46704710B5044664
:10094000AFF300802046BDE81040FFF763BC000015
:1009500000487047BCC5002001491820ABBEFEE727
:1009600026000200704710B507F03EFB002010BDC6
:100970002DE9FF5F644A4FF00007D18896888946C9
:10098000891B1FFA81FA11460128B1F802800D88EF
:1009900058D100245D494FF480424A618B684FF47E
:1009A0007F4000EA83130A614A6188680A61C0F3E4
:1009B00087001843BD423AD8B84538D9A64236D840
:1009C000A14534D9C10AC0F3841B00F01F00029175
:1009D00007F08FFC4E4A4F4B07F09EFCCDE900011B
:1009E000584607F086FC4C4A4C4B07F095FC834672
:1009F0000391029807F07DFC4FF03332484B07F02B
:100A00008BFC5A46039B07F09FFBDDE9002307F0B0
:100A10009BFB07F041FC80B2172801D3012000E0C6
:100A200000207A1B02FB0A418A1B3E498854641C41
:100A3000A4B2B4F5A07FADD37F1CBFB2F02FA8D372
:100A4000BDE8FF9F0024384B4FF480711960DFF838
:100A5000D8C0ACF10C0CDCF80020A3F1040B4FF66D
:100A6000FF7000EA0222CBF800101960DCF80000E9
:100A7000CBF80010C0B21043BD423AD8B84538D9BF
:100A8000A64236D8A14534D9C10AC0F3841B00F070
:100A90001F00029107F02DFC1D4A1E4B07F03CFC85
:100AA000CDE90001584607F024FC1B4A1B4B07F018
:100AB00033FC83460391029807F01BFC4FF033325E
:100AC000174B07F029FC5A46039B07F03DFBDDE975
:100AD000002307F039FB07F0DFFB80B2192801D3B0
:100AE000012000E000207A1B02FB0A418A1B0D490D
:100AF0008854641CA4B2B4F5A07FA4D37F1CBFB2F9
:100B0000F02F9FD39CE70000380200200020014016
:100B1000295C8FC2F528BC3FE17A14AE47E1E23F81
:100B20003333D33F1D0A0020141C01402DE9F04F40
:100B30000025ADF5137D06464FF4A0772C46AA4656
:100B4000F02150A88C95FFF7B3FD39466846FFF7B2
:100B5000AFFD00274FF00B008E903846012E8146E6
:100B600065D10026A0494FF480424A618B684FF45A
:100B70007F4000EA83130A614A6188680A61C0F312
:100B800087001843C10AC0F3841800F01F008F913A
:100B900007F0AFFB954A964B07F0BEFBCDE99001FD
:100BA000404607F0A6FB934A934B07F0B5FB8046FF
:100BB00092918F9807F09DFB4FF033328F4B07F0E7
:100BC000ABFB4246929B07F0BFFADDE9902307F0AA
:100BD000BBFA07F061FBC0B2012F01D10DF806008E
:100BE000854201D9291A00E0411B032901DD641C5B
:100BF000A4B2182C00D1B246761CB6B20546B6F5A2
:100C0000A07FAFD350A8002700F809408C988442F9
:100C100003D9CDE98C49D3460127002409F101000D
:100C20001FFA80F92546B9F1F00F9AD36DE000263E
:100C3000734B4FF480711960DFF8C4C1ACF10C0C38
:100C4000DCF80020A3F104084FF6FF7000EA02224E
:100C5000C8F800101960DCF80000C8F80010C0B235
:100C60001043C10AC0F3451800F01F008F9107F030
:100C700040FB5E4A5E4B07F04FFBCDE990014046DA
:100C800007F037FB5B4A5C4B07F046FB80469291CE
:100C90008F9807F02EFB4FF03332584B07F03CFB98
:100CA0004246929B07F050FADDE9902307F04CFA98
:100CB00007F0F2FAC0B2012F01D10DF8060085420B
:100CC00001D9291A00E0411B032901DD641CA4B2EB
:100CD000182C00D1B246761CB6B20546B6F5A07FF8
:100CE000A6D350A8002700F809408C98844203D965
:100CF000CDE98C49D3460127002409F101001FFAF0
:100D000080F92546B9F1F00F91D33E4A50AB8D984A
:100D10000AE0195C0A2901D2641CA4B2032C01D98F
:100D2000508003E0401C80B2F028F2D300218D985F
:100D30000AE01C5C0A2C01D2491C89B2032901D9A2
:100D4000108003E0401E80B20028F2D100215846F6
:100D50006B460EE01D5C8E9CA54207D2491C89B2F1
:100D6000042904D90144918028B106E00021401EE5
:100D700080B20028EED100209080002158464FF428
:100D8000A0750DE01E5C8E9CA64206D2491C89B25D
:100D9000042903D9411AD18004E00021401C80B20B
:100DA000A842EFD3A84202D140F23F10D080D188B0
:100DB00090880B1AE62B0EDDA1EB0B04ABEB0003C6
:100DC0009C4204DAC1EB4B0000F1E6000AE006DDCC
:100DD00000F1E600D0800DF5137DBDE8F08F0BF13A
:100DE0006400D0809080F6E700200140295C8FC22B
:100DF000F528BC3FE17A14AE47E1E23F3333D33FFD
:100E0000141C01403802002070B504460068144DDF
:100E1000A0B1804790B120796179884201D2401C0D
:100E20000FE0A07A00280DD10120A072024604F143
:100E30000C01A868BDE8704006F0DBB9207910B15C
:100E4000401E207170BDA07A0026012806D1A6722E
:100E5000012204F10B01A86806F0CBF9E68070BD11
:100E60004002002010B503F079FB01F007FBBDE85C
:100E7000104000F021B8000010B50E48FFF7C4FF85
:100E80000C481030FFF7C0FF0A482030FFF7BCFFC6
:100E900008483030FFF7B8FF0648403002F0D7FC72
:100EA0000448503002F0D3FC0248BDE810406030E6
:100EB00003F084BE4C45002010B52B4A29480A2176
:100EC0001060002010715171D0804FF47A7313813B
:100ED00090720224D472012414731032234C1460D3
:100EE00010715171D080138190720424D472032444
:100EF000147310321E4C146010715171D080138124
:100F000090720624D472052414731032194C1460A4
:100F100010715171D080138190720824D47207240B
:100F200014731032144C146010715171D0801381FD
:100F30009072D07210731032104C14601071517195
:100F4000D08013819072D072107310320C4C1460E8
:100F500010715171D08013819072D1720920107379
:100F600010BD0000152600084C4500203126000861
:100F70004D2600086926000885260008A1260008DD
:100F8000BD26000838B502F099F90128FBD101F01F
:100F9000DBFF0128FBD1002002F0BCF9002002F0A9
:100FA0001CF9002002F0F2F8002002F027F90020DE
:100FB00002F066FB002001F0F3FF002001F09FFF2C
:100FC000002001F075FF002001F0AAFF002002F0D0
:100FD00033F800244FF4A075F0232A46214620461A
:100FE000009402F0CFFB0021F0232A46084600942B
:100FF00002F067F838BD00002DE9F0430024DFF867
:101000001C81010019D0464A012844D00025914690
:101010000021C5EB05120B4602EB820C03EB4C06DC
:1010200018F8032019F806705740002227FA02F634
:1010300016F0010F5BD0491E5AE0DFF8E89000255A
:101040000021C5EB05120B4602EB820C03EB4C06AC
:1010500018F8032019F806705740002227FA02F604
:1010600016F0010F01D0491E00E0491C521CD2B2FB
:10107000082AF3D35B1CDBB2962BE7D3002900DAF6
:1010800000218C4201DA8CB228466D1CEDB2032D92
:10109000D6D3BDE8F0830A2591460021C5EB0512A1
:1010A0000B4602EB820C03EB4C0618F8032019F8F0
:1010B00006705740002227FA02F616F0010F01D001
:1010C000491E00E0491C521CD2B2082AF3D35B1C13
:1010D000DBB2962BE7D3002900DA00218C4201DA3B
:1010E0008CB228466D1CEDB2152DD6D3D1E7491C24
:1010F000521CD2B2082A99D35B1CDBB2962B8DD33B
:10110000002900DA00218C4201DA8CB228466D1CDD
:10111000EDB2152DFFF47CAFBBE70000B544002015
:1011200073A30008B1A100082DE9F04F91B000258C
:101130002C46202109A8FFF7BBFA202101A8FFF7C0
:10114000B7FAC94EC94F70883188401A1FFA80F922
:10115000F088B1884FEA5902401A80B29246A0F155
:10116000010C18E000210CE002FB00139BB217F801
:1011700003803B445B78984501D06D1CADB2491C9F
:1011800089B26145F0DB0A2D02D272802DB106E0F2
:101190000025521C92B24A45E4D3A6F802900022E0
:1011A000534618E000210CE003FB0015ADB217F820
:1011B00005803D446D78A84501D0521C92B2491C6F
:1011C00089B26145F0DB0A2A02D233802AB106E0F7
:1011D00000225B1E9BB2002BE4D10021318042082B
:1011E00030E03188BD188C46738811E001FB00F8AF
:1011F00018F80580B8F1010F02D0012C05D005E0E8
:101200000CB9ADF8422001241AE00224491C89B22D
:101210008B42EBD8022C13D1511C8BB2ADF840306D
:10122000BDF842100024CB1A082B09DAB1EB500F9D
:1012300006D00CF1030C0CFB0011795C012903D1E1
:10124000521E92B2002ACCD1BDF8423004210022B5
:101250005B1C9CB20DF1240A26E0338807EB040CDA
:10126000758813E003FB00F818F80C80B8F1010F43
:1012700002D0012A07D007E01AB92AF81140491C08
:1012800089B201220EE002225B1C9BB29D42E9D88A
:10129000022A07D1621E2AF8112000220D2907D048
:1012A000491C89B2641CA4B28442D6D30D292FD321
:1012B000BDF84030032100225B1E9CB225E033883C
:1012C00007EB040C758813E003FB00F818F80C809A
:1012D000B8F1010F02D0012A07D007E01AB92AF8A5
:1012E0001140491E89B201220CE002225B1C9BB214
:1012F0009D42E9D8022A05D1621C2AF81120002259
:10130000491E89B241B1641EA4B2002CD7D119B1D3
:10131000002011B0BDE8F08FBDF82A10BDF82820DC
:10132000BDF82630891A591A4FF0000C8AB2748819
:10133000BE46358815E029460EEB020606E001FBA5
:1013400000F7BF5D012F07D0491C89B28C42F6D847
:10135000BCF1000F07D102E0ADF8242003E0521CDD
:1013600092B29342E7D800214FF000092B460AEBD6
:1013700041061CE03AF81120F34603FB00F7B6F8EB
:10138000028008E00BEB020C17F80CC0BCF1010F57
:1013900007D0521C92B29045F4D2B9F1000F08D197
:1013A00003E001AA22F8113003E05B1C9BB29C42CF
:1013B000E0D84FF0000B2346F4461CE03AF8112029
:1013C00003FB00F7B6F8029008E00CEB020817F8F0
:1013D0000880B8F1010F07D0521C92B29145F4D2A7
:1013E000BBF1000F09D104E001AA02EB41025380D6
:1013F00003E05B1E9BB29D42E0D9891C89B20E2995
:10140000B2D3BDF80C00ADF80800BDF80E00ADF881
:101410000A00BDF81C00ADF81800DFF84C80BDF8DC
:101420001E00ADF81A000024554601AEA8F10808C8
:1014300006EB44004088009005EB440036F8143079
:101440004288C4F3470035F81410074602F060FDE7
:101450003846FFF7D1FD08EB5401A41CA4B2087074
:101460000E2CE5D3012054E7380200201D0A00208D
:101470002DE9F05F15461C46DDF828B00E460746FC
:1014800001EB040800EB050A1FFA88F11FFA8AF045
:101490005A4600F03FFA1FFA88F1A7EB05081FFA39
:1014A00088F05A4600F036FAA6EB04091FFA89F1D3
:1014B0001FFA8AF05A4600F02DFA1FFA89F11FFA36
:1014C00088F05A4600F026FA06EB050907EB0408F7
:1014D0001FFA89F11FFA88F05A4600F01BFA3C1BEC
:1014E0001FFA89F1A0B25A4600F014FA751BA9B28E
:1014F0001FFA88F05A4600F00DFAA9B2A0B25A4677
:10150000BDE8F05F00F006BA2DE9FF4F83B0054655
:1015100082460A2089464FF000084FF0800B019068
:101520002E49109A08EB081011F8103012789342E7
:1015300038D101EB4000009041781098407881420A
:1015400030D109F10F0083B205F10F0082B2494694
:10155000284601F0B1F90026009800248719119857
:10156000B97800282BFA04F001EA00010CD021B16F
:1015700049462846059A00F0CDF96D1CADB2A5EBA1
:101580000A00102823D005E009B1059800E006986C
:1015900001F0A0F9641CE4B2082CE0D3761CF6B28A
:1015A000202ED9D308F10100019900F0FF088845E9
:1015B000B6D30B494888401E83B2088807B0401E46
:1015C000BDE8F04F82B20021084601F075B909F17B
:1015D000010055461FFA80F9E0E7000093910008EA
:1015E000060700202DE9FF4F83B0054682461D20E7
:1015F00001900020894680464FF0800B00EB80016F
:1016000001EB48102D49109A11F8103012789342CE
:1016100038D101EB40000090417810984078814229
:1016200030D109F1170083B205F1170082B24946A3
:10163000284601F041F900260098002487191198E6
:10164000B97800282BFA04F001EA00010CD021B18E
:1016500049462846059A00F05DF96D1CADB2A5EB30
:101660000A00182823D005E009B1059800E0069883
:1016700001F030F9641CE4B2082CE0D3761CF6B219
:10168000482ED9D308F10100C0B2019980468842A2
:10169000B4D30B494888401E83B2088807B0401E67
:1016A000BDE8F04F82B20021084601F005B909F10A
:1016B000010055461FFA80F9E0E70000E7920008B4
:1016C000060700202DE9FF4F83B00546824608201B
:1016D00089464FF000084FF0800B01902E49109A78
:1016E00008EB881011F810301278934238D101EBD2
:1016F00040000090417810984078814230D109F143
:101700001F0083B205F11F0082B24946284601F04E
:10171000D3F800260098002487191198B97800287A
:101720002BFA04F001EA00010CD021B14946284609
:10173000059A00F0EFF86D1CADB2A5EB0A00202869
:1017400023D005E009B1059800E0069801F0C2F841
:10175000641CE4B2082CE0D3761CF6B2802ED9D3F8
:1017600008F10100019900F0FF088845B6D30B4944
:101770004888401E83B2088807B0401EBDE8F04F7D
:1017800082B20021084601F097B809F101005546E0
:101790001FFA80F9E0E70000499B000806070020D7
:1017A0002DE9F84381461546884600246842032106
:1017B0001F4601EB400612E0ABB2A2B241464846DA
:1017C0000097FFF755FE002E03DA06EB8406B61DE0
:1017D00004E0601B06EB80066D1E0A36641CAC42FA
:1017E000EADDBDE8F8832DE9F8431D46089C16465E
:1017F000884607460B46009400F017F83A462B46F9
:1018000041461046009400F010F82B463246194627
:101810003846009400F009F832462B4641461046FF
:10182000009400F002F8BDE8F8832DE9F05F8246ED
:101830008946A2EB0A04A3EB09054FF0FF37002C01
:1018400002DD4FF0010002E003D14FF000008046BE
:1018500002E0B846C4F10004002D02DD4FF001079C
:1018600005E002D14FF0000701E0C5F100053CB1F1
:10187000BDB1AC4237DD601C1FFA80FB00262FE0B3
:101880006D1CADB2002408E004FB079081B2504605
:101890000A9A00F03FF8641CA4B2AC42F4D3BDE84D
:1018A000F09F641CA5B2002408E004FB08A080B2ED
:1018B00049460A9A00F02EF8641CA4B2AC42F4D354
:1018C000EDE706FB05F090FBF4F101FB079081B218
:1018D00006FB08A080B20A9A00F01CF8761CB6B28B
:1018E0005E45EED3DBE7681C1FFA80F800260EE0A9
:1018F00006FB04F090FBF5F101FB04A006FB079149
:1019000080B289B20A9A00F005F8761CB6B2464554
:10191000EED3C4E710B5144600F0B2FF01480480CE
:1019200010BD00000008006C2DE9F84F824600242D
:10193000164603209846894600EB460718E02546E0
:1019400008E0ABB2A2B249465046CDF80080FFF79E
:101950008FFD6D1CB542F4DD002F03DA07EB840721
:10196000BF1D04E0A01B07EB8007761E0A37641C2E
:10197000B442E4DDBDE8F88F70B5141A641CA6B259
:101980005C1A641CA4B25B1E521E74439BB292B2DA
:10199000049D00F091FF0020094901E00D80401CEA
:1019A000A042FBD307494888401E83B20888BDE89F
:1019B0007040401E82B20021084600F07DBF00004A
:1019C0000008006C0607002070B500244FF4007179
:1019D0000B4800F008FD4FF47A7005F0DFFF4FF47C
:1019E000FA752B46002207A107A000F00FF8002887
:1019F00005D100F083F9641CE4B20A2CF1D370BD68
:101A0000000C01404F4B0000415400002DE9FE4303
:101A1000394C05460E46207890461E21B0FBF1F267
:101A200001FB12009946207018B94FF6FF7000F0C4
:101A300051FE324FB7F800046FF30E00A7F8000410
:101A40002A462FA1304803F03BF856EA080024D07C
:101A5000484605F0A3FFB7F800140020C1F30E01BB
:101A6000102578540097CDE901502078002301011A
:101A70004FF6E072184602F06FFC24494FF47849A3
:101A80000127A1F80090A6B1B8F1000F314608D0A7
:101A90001A48FEF70DFD40B902E00120BDE8FE83C3
:101AA00041461648FEF704FDB8B1CDE9006502973E
:101AB00008E041461148FEF7FBFC70B1CDF800800C
:101AC000CDE901572078002301014A46F02002F0B9
:101AD00043FC2078401C2070DFE70DA08DE8A100BA
:101AE0002078002301014A46F02002F035FC2078DE
:101AF000401C20700020D1E72800002004030020B3
:101B000025730D0A00000000004800402A00002054
:101B10006572726F7200000000B585B008B10122D5
:101B200000E0002206A16846FEF714FC4FF4FA73A9
:101B3000002207A16846FFF769FF05B000BD00005D
:101B400041542B4349504D55583D25640000000039
:101B50004F4B0000F8B50121082002F083F94FF443
:101B60008074ADF8004010208DF8030003200F4E64
:101B70008DF802006946304600F0DEFB01210820A6
:101B800002F070F96500ADF800506946304600F08B
:101B9000D3FB00F0C7F82946304600F024FC21466C
:101BA0003046BDE8F84000F01CBC0000000C0140CD
:101BB00000B59FB00B46024606A16846FEF7CAFB79
:101BC00041F28833002208A16846FFF71FFF1FB0CB
:101BD00000BD000041542B43574A41503D2225731C
:101BE000222C2225732200004F4B0000F0B5B9B023
:101BF0000F4604461E461546642101A8FEF758FD0F
:101C000014B1012C0BD103E03B4610A2009502E079
:101C10003B460FA200950FA101A8FEF79BFB052EE6
:101C200006D201AB32460FA11AA8FEF793FB04E0DF
:101C300001AA11A11AA8FEF78DFB4FF47A6312A234
:101C400015A11AA8FFF7E2FE39B0F0BD54435000C9
:101C500055445000222573222C222573222C2573F3
:101C60000000000041542B43495053544152543D0D
:101C700025642C257300000041542B4349505354D4
:101C80004152543D25730000414C52454159204377
:101C90004F4E4E45435400004F4B000040F6C413D6
:101CA00028B1012807D0022809D00020704706A2D9
:101CB00008A109A006E004A206A10AA002E002A26F
:101CC00004A10BA0FFF7A2BE6E6F206368616E6770
:101CD000650000004F4B000041542B43574D4F44CB
:101CE000453D310041542B43574D4F44453D320053
:101CF00041542B43574D4F44453D330070B5084D7B
:101D00004FF400742146284600F06BFB4FF4FA7044
:101D100005F044FE21462846BDE8704000F063BB54
:101D2000000C014030B5012187B0880402F08EF824
:101D30000121082002F096F84FF48060ADF8100001
:101D400018208DF813000320234C8DF8120004A9ED
:101D5000204600F0F1FAE114ADF8101004218DF8DE
:101D6000131004A9204600F0E7FA00244FF4E130F4
:101D70000090ADF808400C20184DADF80440ADF8C7
:101D80000A00ADF80640ADF80C406946284602F05E
:101D900039FE012240F22551284602F01AFE0122A6
:101DA00040F22441284602F014FE4FF4A06000F0F7
:101DB0001FFE27208DF814008DF815408DF8164071
:101DC00001208DF8170005A800F0E0FD012128464C
:101DD00002F0CFFD07B030BD000C014000480040CC
:101DE00010B54FF4FA742346002207A107A0FFF7AD
:101DF0000DFE002807D02346BDE8104007A202A12F
:101E000007A0FFF703BE10BD4F4B000041542B430A
:101E100049504D4F44453D31000000003E00000058
:101E200041542B43495053454E44000070B54FF484
:101E30000044204600F06CF800281DD00F49487877
:101E40000F4BA21018B14878012809D00FE00D4EB1
:101E5000802575611A61012048701A61356106E0BC
:101E60005A61022048700848006805F06BFB204664
:101E7000BDE8704000F03EB870BD0000CA00002010
:101E80000020014000100140F402002070B54FF422
:101E90000074204600F03CF8002821D01149487811
:101EA000620018B1487801280CD014E00E4B0820CD
:101EB00018600E4B1A6001254D701A600A49091FFF
:101EC000086008E00948001D0260022048700848C8
:101ED000006805F037FB2046BDE8704000F00AB806
:101EE00070BD00002E00002014180140101C01409D
:101EF000F802002001490860704700001404014006
:101F000002490A6802430A60704700001004014059
:101F1000064A014600201268044B0A4014331B682D
:101F20000B4202D0002A00D001207047000401407B
:101F300030B51A4A8379016853B313688B43136031
:101F4000111D0B680468A3430B60017911440B68F1
:101F5000046823430B60114B083319680468A143DC
:101F600019601C1D21680568A94321604179102969
:101F700005D011440A68006802430A6030BD196840
:101F8000026811431960216800680143216030BD77
:101F90000079104402688A43026030BD00040140A9
:101FA00030B589B00020059006900790114812497D
:101FB0000DF1040CC2788579447903798A5C4D5D12
:101FC0000C5DCB5C8CE83C0082788A5C00924278A5
:101FD00000788B5C00EB40001531421807A105A882
:101FE000FEF7B8F905AA09A10A4802F069FD09B08F
:101FF00030BD000030020020C1AF0008257325630A
:102000002E25632563256325632563004C25730D09
:102010000A000000004800401CB50E4EDFF8388072
:102020000E4C01AD4FF0FF39012700954B460622BB
:102030000321306804F0F2FB0028F6D101F026FC01
:1020400088F8007001F03EFDA0680028EDD005F092
:1020500029FEEAE7FC02002046020020540200208C
:102060002DE9F04389B0002533480595069507957D
:102070003249C2788679447903798A5C01AF8E5DF2
:102080000C5DCB5C87E85C0082788A5C00924278C9
:1020900000788B5C00EB4001284815300A1828A115
:1020A00005A8FEF757F92A4CB4F800046FF30E00A8
:1020B000A4F8000405AA27A1284802F001FD4FF466
:1020C000FA7005F06BFCB4F800040004FBD5B4F81A
:1020D00000041027C0F30E000126255420A0CDE9EE
:1020E00000074FF6FF784FF49C794346002249469B
:1020F00002964E2002F0B6F918200094CDE90105B1
:102100004FF4784543462A464FF49A71B62002F0C0
:10211000A9F917A0CDE900070296B4F80014B6207B
:1021200000EB011080B243462A46494602F09AF974
:1021300009B0BDE8F083000030020020C1AF000804
:10214000257325632E256325632563256325630099
:10215000040300204325730D0A00000000480040DE
:102160005061726B696E672054696D653A000000BA
:10217000530000008000A0F1C0400029016802D097
:1021800041F0010101E0024A114001607047000086
:10219000FEFF0F0010B5D0E901121143D0E903236F
:1021A0001A4311434269114382691143C2691143C1
:1021B000026A1143426A1143826A1143C26A11439F
:1021C000026B114302689200A2F1C0421160816863
:1021D000082907D101688900A1F1C0410A6842F0CD
:1021E00040020A60416BD1E9002342EA03128B6886
:1021F0008C891B0243EA04431A430B8A42EA0352C6
:102200000B7D896942EA03620A4301688900A1F1F2
:10221000C0414A60C16AB1F5804F08D000686FF0D4
:1022200070418000A0F1C040C0F8041110BD816B66
:10223000D1E9002342EA03128B680C8A1B0243EAAD
:1022400004531A430B7D896942EA036200680A431A
:102250008000A0F1C040C0F8042110BD08B50121E4
:10226000082001F0FFFD0320ADF8000018218DF8D3
:1022700003108DF802006946034800F05DF8BDE8E0
:10228000084000F003B80000000C014030B587B0F2
:102290000121022001F0DAFD44F61F60ADF81400C0
:1022A00047200024ADF81000184DADF81640ADF8E9
:1022B00012408DF8184004A9284602F059FA60210E
:1022C000ADF800100120ADF802004FF4C860ADF881
:1022D0000600ADF808406946284602F0C3F9082117
:1022E000284602F0FDF94FF4AF60ADF806006946EC
:1022F000284602F0FBF90821284602F029FA0121BC
:10230000284602F0A5F907B030BD000000040040E7
:1023100010B58A0721F003040649120F21440F2348
:102320008C6893409C438C608B68904003438B6027
:1023300010BD000000000140F0B5CC78002204F090
:102340000F03E40601D58C7823430C784FF00F0C73
:1023500014F0FF0F4FF0010E1BD005680E880EFA27
:1023600002F42640A64210D196000CFA06F725EAA0
:10237000070703FA06F5CE783D43282E02D0482EF3
:1023800002D002E0446100E00461521C082AE5D357
:1023900005600A88FF2A1CD94468002202F1080659
:1023A0000EFA06F50E882E40AE420ED196000CFABB
:1023B00006F7BC4303FA06F7CE783C43282E00D13B
:1023C0004561CE78482E00D10561521C082AE5D31C
:1023D0004460F0BD0246002092680A4200D001200D
:1023E0007047416170470161704770B504460D4602
:1023F00045F2555000F02AF8204600F01BF8284618
:1024000000F01EF800F00EF8BDE87040AFF3008059
:1024100002494CF6CC400860704700000030004094
:10242000AFF3008002494AF6AA2008607047000016
:102430000030004001494860704700000030004013
:102440000149886070470000003000400149086081
:10245000704700000030004041F28834204605F00B
:102460009DFAFFF7DDFF02A004F0DAFCF6E70000BA
:10247000CEB9B9B70A000000FEF7FEBC38B501219D
:10248000882001F0EFFC4FF4F040ADF80000282464
:102490008DF8034069460748FFF74EFF4FF4C040F0
:1024A000ADF800008DF8034069460348FFF744FF8C
:1024B00038BD0000001C0140000C014001F002BBCF
:1024C0002DE9FE434FF6FF75284600F003F9202062
:1024D00036A1CDE9001001242B461F2202940F21C2
:1024E00001F0C0FF1F20342300904FF4A072194662
:1024F0000020FFF79AF9102031A1CDE900102B46FA
:10250000002202943A21702001F0ACFF182730A07D
:10251000CDE900072B46002250210294542001F0FF
:10252000A1FF2FA0CDE900072B4600226B210294CA
:10253000542001F097FF2EA0CDE900072B46002282
:1025400086210294542001F08DFF2DA0CDE90007D3
:102550002B460022A1210294542001F083FF002485
:102560002646A8464FF4784904EBC40000EB40052A
:1025700005F1690305F14E01EC2254200096FFF7A6
:1025800032F923A0CDE9000705F1500143464A4640
:102590000296B42001F066FF641CE4B2042CE3D37D
:1025A00001F074F9BDE8FE4302F032BDD6C7C4DCC9
:1025B000B3B5CEBBB9DCC0EDCFB5CDB300000000E4
:1025C000CEB4C1ACBDD3B7FECEF1C6F7000000005B
:1025D000BDF8C8EBB3B5C1BE3030C1BE00000000CD
:1025E000CABBB3F6B3B5C1BE3030C1BE00000000F7
:1025F000D6CDC1F4B3B5C1BE3030C1BE00000000BD
:10260000CAA3D3E0B3B5CEBB3030B8F600000000AB
:102610003030000010B54FF400610448FFF7DAFED7
:1026200008B1002010BD012010BD0000001C0140B9
:1026300010B54FF480510448FFF7CCFE08B10020DC
:1026400010BD012010BD0000001C014010B54FF46A
:1026500000510448FFF7BEFE08B1002010BD012064
:1026600010BD0000001C014010B54FF4804104482B
:10267000FFF7B0FE08B1002010BD012010BD000022
:10268000001C014010B54FF400510448FFF7A2FEB2
:1026900008B1002010BD012010BD0000000C014059
:1026A00010B54FF480410448FFF794FE08B10020B4
:1026B00010BD012010BD0000000C014010B5082124
:1026C0000348FFF787FE08B1002010BD012010BDB0
:1026D0000014014070B505460D480024418800886B
:1026E000491E401E8BB282B22146204600F0E4F81B
:1026F000084A4FF470700021491C1580A029FBD3B3
:10270000641C8442F7D3BDE87040642005F046B9EC
:10271000060700200008006C70B501219EB0080279
:1027200001F088FB012140F2791001F09BFB802031
:10273000ADF83C0010258DF83F5003248DF83E4045
:102740000FA93148FFF7F8FD2020ADF83C008DF8C7
:102750003F508DF83E400FA92C48FFF7EDFD4CF29D
:102760003370ADF83C0018268DF83F608DF83E4080
:102770000FA92748FFF7E0FD4FF68070ADF83C0049
:102780008DF83F608DF83E400FA92248FFF7D4FD39
:1027900041F20100ADF83C008DF83F608DF83E40FD
:1027A0000FA91D48FFF7C8FD0120109000200F2140
:1027B000CDE911010221CDE91601139014900521F4
:1027C000CDE9180115901A9006211B901C90CDE9B7
:1027D0000010CDE902051D9004902902CDE9080101
:1027E0000690059007908900CDE90A010C9010A889
:1027F0000D9017A80E906846FFF7CCFC012106202B
:10280000FFF7B8FC1EB070BD000C01400010014085
:1028100000140140001801400020014010B5FFF7EE
:102820007BFF00F01DF80B4C3620A11C2080C82037
:102830000880782005F0B2F82920208000F026F8E2
:1028400005490120C1F89C0104480088BDE81040FA
:10285000FFF740BFFE07006C008021422C000020E3
:1028600070B5064C20256561642005F097F8256158
:10287000BDE87040322005F091B800000010014022
:102880004A1C93B2421C92B200F016B809482A21A1
:1028900041812B2181812C210181002181714FF403
:1028A000A07101804FF4F0714180C821362000F002
:1028B00021B80000060700200448054980898A1CC9
:1028C0000880D8B2108000F00BB800000607002086
:1028D000FE07006C01490880704700000008006C8A
:1028E000024803490089088070470000060700205D
:1028F000FE07006C024A1080901C018070470000A7
:10290000FE07006CFEB54FF6FF764FF4BE7340F243
:102910003F12BE2100200096FFF72EF81F24C82387
:10292000D22219466E200094FEF77FFFCE23D222DA
:1029300019466E200094FEF778FF18270FA0CDE906
:102940000007012533460022DC2102957C2001F09E
:1029500089FD4FF4977340F20112F8214920009449
:10296000FFF70AF807A0CDE900071F23DA0240F2BB
:10297000051102957C2001F075FDFEBDB3B5C5C6FD
:10298000BAC50000CAB6B1F0D6D0000030B50F23EA
:10299000C27801780125F2B1144A126801F1E021F0
:1029A00002F4E062C2F5E062120AC2F10404D3400C
:1029B0004278A24084781C401443220181F800240C
:1029C000007800F01F018D404009800000F1E020F8
:1029D000C0F8005130BD01F01F008540480980005B
:1029E00000F1E020C0F8805130BD00000CED00E0A7
:1029F0000249084302490860704700000000FA05D8
:102A00000CED00E02DE9FE430546FFF77BFF4FF498
:102A1000807425B3264F7C61264EA5017561356112
:102A20003C61756135610120FEF780F87C6175615C
:102A300035613C61756135610120FDF799FFFEF755
:102A400073FB040027D01C4800901F234FF6FF7231
:102A5000FA214B2001F018FB2046BDE8FE83DFF889
:102A60005C902025C9F80050154E3460371F3C603B
:102A7000A9F10408C8F8005034603C600020FEF75B
:102A800055F8C9F8005034603C60C8F80050346014
:102A90003C600020D1E7002218210AA08DE8070041
:102AA0001F23DA0240F20511702001F0DBFCD3E7AE
:102AB00000100140002001403002002014180140A5
:102AC000141C0140CAB6B1F0CAA7B0DC0000000077
:102AD0002DE9F8430121D02001F0C4F910208DF830
:102AE0000300032546021D4F8DF80250ADF800602B
:102AF00069463846FFF720FC0820194CADF8000065
:102B000069462046FFF718FC2020ADF80000694612
:102B10002046FFF711FCA015DFF84880ADF8000053
:102B200069464046FFF708FC2415ADF800406946A9
:102B30004046FFF701FCFF20ADF8000004208DF8AF
:102B400003008DF8025069464046FFF7F5FB7E61B1
:102B5000044810300460BDE8F88300000010014014
:102B600000180140001C014038B50121402001F04F
:102B700079F91024ADF8004003208DF802000A4DC9
:102B80008DF8034069462846FFF7D6FB0121402017
:102B900001F068F94021ADF800108DF80340694656
:102BA0002846FFF7C9FB38BD001801402DE9F04168
:102BB00014460E46074600F0A1F800281BD042201C
:102BC00000F072F800F0EAF890B1204600F06CF8DE
:102BD00000F0E4F800F0C4F800F090F800280AD003
:102BE000432000F061F800F0D9F8DFF8B880E8BBC6
:102BF00000F0B6F80020BDE8F0810825002440214F
:102C00004046FFF7F0FB14E06006040E102140463A
:102C1000FFF7E7FB00F009F910214046FFF7E3FB5F
:102C200000F003F940214046FFF7D4FB08B144F01F
:102C300001046D1EEDB2E7D2102145464046FFF774
:102C4000D0FB3C70012E4FF01001284620D0FFF73A
:102C5000C8FB00F0EAF840212846FFF7C2FB00F06D
:102C6000E4F810212846FFF7BEFB00E00AE000F080
:102C7000DCF810212846FFF7B4FB00F0D6F8761EEA
:102C8000B6B27F1C002EB8D100F06AF80120B2E77E
:102C9000FFF7A7FB00F0C9F840212846FFF7A3FB88
:102CA000DDE700000018014070B505460824124E0B
:102CB00017E0FFF796FB00F0B8F828064FF0400148
:102CC000304602D5FFF78FFB01E0FFF78AFB68066D
:102CD000050E00F0AAF810213046FFF784FB00F043
:102CE000A4F8641EE4B24FF010013046E1D2BDE812
:102CF0007040FFF776BB00000018014010B5174C7C
:102D0000206820F070602060206840F00060206043
:102D100040212046FFF767FB10212046FFF763FBA9
:102D200000F083F840212046FFF754FB00280BD029
:102D300040212046FFF755FB00F077F84021204660
:102D4000FFF748FB08B1002010BD40212046FFF7E7
:102D500048FB00F06AF8012010BD00000018014097
:102D600010B50D4C10212046FFF73BFB00F05DF83D
:102D700040212046FFF735FB00F057F81021204690
:102D8000FFF731FB00F051F840212046FFF72BFB05
:102D9000BDE8104000F049B80018014010B5124CD1
:102DA00010212046FFF71DFB00F03FF84021204690
:102DB000FFF719FB00F039F810212046FFF713FB4D
:102DC00000F033F840212046FFF704FB00284FF0C5
:102DD0001001204603D0FFF704FB002010BDFFF7D1
:102DE00000FB012010BD00000018014070B50D4629
:102DF0000446FFF783FF002812D04220FFF754FF5C
:102E0000FFF7CCFF68B1E0B2FFF74EFFFFF7C6FF58
:102E10002846FFF749FFFFF7C1FFFFF7A1FF012099
:102E200070BDFFF79DFF002070BD4FF4C870401EBD
:102E30000004000CFBD170472DE9FF4101218120E6
:102E400001F010F84FF40074ADF80C4004208DF838
:102E50000F0003278DF80E7003A91448FFF76CFAD2
:102E600009210520FFF754FA00258DF804500C20A5
:102E70008DF80500012600948DF806606846FFF77E
:102E800057F82046FFF73CF87802FFF7B1FD17200E
:102E90008DF808008DF809508DF80A708DF80B60D8
:102EA00002A8FFF773FDBDE8FF810000001C014090
:102EB00010B5001D092815D2DFE800F01F1D121003
:102EC0000E0C0A070500482100E03821062409E01D
:102ED0002821FBE71821F9E70821F7E7082100E09E
:102EE00018210E249B20FFF781FF2146BDE81040EA
:102EF000AB20FFF77BBF2821F3E73821F1E710B5BE
:102F0000011D08290BD804014034E1B2A720FFF7C6
:102F10006DFFE1B2BDE81040A820FFF767BF10BD0C
:102F2000011D082906D8202101EB8000C1B29C2098
:102F3000FFF75CBF704710B5FFF716FEFFF7C8FD3F
:102F4000BDE81040FFF778BFF8B500248DF80040C9
:102F500080211220FFF74AFF00280BD00B2201210D
:102F60006846FFF723FE002804D09DF800002128C2
:102F700001D00020F8BD094DAE1E0AE005EB44006B
:102F8000417815F81400FFF731FF0028F2D0641CD7
:102F9000A4B230788442F1D30120F8BD3000002083
:102FA00010B5062847D2DFE800F003061D27313CA4
:102FB000FF21132009E0FD211320FFF717FF5A21FD
:102FC0000120FFF713FF5C2129E0FFF70FFF6521C8
:102FD0000E20FFF70BFF00212D20FFF707FF002138
:102FE0002E2024E0FD211320FFF700FF58210120AF
:102FF000FFF7FCFE602112E0FD211320FFF7F6FE33
:1030000084210120FFF7F2FE4C2108E0FD2113206E
:10301000FFF7ECFE96210120FFF7E8FE4021022099
:10302000D3E7FF211320FFF7E1FEE5210E20BDE8E5
:103030001040FFF7DBBE10BD10B5072840D2DFE817
:1030400000F00406111B252F3900062100E026217F
:10305000A620FFF7CBFE80216020FFF7C7FE80216E
:10306000612029E01E21A620FFF7C0FEA0216020DC
:10307000FFF7BCFE4021F3E71E21A620FFF7B6FEB6
:1030800040216020FFF7B2FEA021E9E71E21A62023
:10309000FFF7ACFE80216020FFF7A8FEC021DFE72C
:1030A0001E21A620FFF7A2FE60210846FFF79EFE24
:1030B0006021D5E74621A620BDE81040FFF796BE67
:1030C00010BD2DE9F843804608981E4614460F4669
:1030D000002859D006211220FFF788FE172201216F
:1030E0006846FFF763FD9DF8001001EB9800C1B240
:1030F0001720FFF77BFEC4F3870189461820FFF7EE
:1031000075FE192201216846FFF750FD9DF8000069
:1031100000EB5700C1B21920FFF768FEC6F3470164
:103120000D461A20FFF762FE322201216846FFF7A2
:103130003DFD9DF8000004F00304204306F0010665
:1031400040EA860108F0030041EA001007F001019F
:1031500040EA81113220FFF749FE49462920FFF756
:1031600045FE29462C20FFF741FE2A220121684610
:10317000FFF71CFD9DF80000044344EA86012A2065
:10318000FFF734FEBDE8F8834621A4E710B5001D23
:10319000092815D2DFE800F01F1D12100E0C0A07D7
:1031A0000500482100E03821062409E02821FBE73A
:1031B0001821F9E70821F7E7082100E018210E247B
:1031C0009B2000F037FA2146BDE81040AB2000F00C
:1031D00031BA2821F3E73821F1E710B5011D08299C
:1031E0000BD804014034E1B2A72000F023FAE1B289
:1031F000BDE81040A82000F01DBA10BD011D08292F
:1032000006D8202101EB8000C1B29C2000F012BA48
:10321000704700002DE9F84301214FF4887000F059
:1032200021FE10208DF803000325DFF874808DF84F
:1032300002504026ADF8006069464046FFF77CF832
:103240008020ADF8000069464046FFF775F8B000F1
:10325000ADF8000069464046FFF76EF83002114FA6
:10326000ADF8000069463846FFF766F8F401ADF89E
:10327000004069463846FFF75FF84FF47F70ADF8BD
:10328000000004208DF803008DF80250694638468E
:10329000FFF752F8C8F814603C61BDE8F8830000FD
:1032A000001001400020014010B500F07FF8FFF74A
:1032B000B1FFBDE8104000F029BA0000F8B50024C5
:1032C0008DF800408021122000F0B4F900280BD0C6
:1032D0000B220121684600F08DF8002804D09DF8EB
:1032E0000000212801D00020F8BD094DAE1E0AE0E3
:1032F00005EB4400417815F8140000F09BF9002814
:10330000F2D0641CA4B230788442F1D30120F8BD1D
:10331000CC00002010B5062847D2DFE800F00306F5
:103320001D27313CFF21132009E0FD21132000F06F
:1033300081F95A21012000F07DF95C2129E000F09B
:1033400079F965210E2000F075F900212D2000F09B
:1033500071F900212E2024E0FD21132000F06AF9EC
:103360005821012000F066F9602112E0FD211320B0
:1033700000F060F98421012000F05CF94C2108E0A4
:10338000FD21132000F056F99621012000F052F99A
:1033900040210220D3E7FF21132000F04BF9E52163
:1033A0000E20BDE8104000F045B910BD38B5012130
:1033B000202000F057FD8020ADF8000003208DF89C
:1033C00002000B4D10248DF8034069462846FEF795
:1033D000B3FF0121202000F045FD4021ADF8001091
:1033E0008DF8034069462846FEF7A6FF38BD000069
:1033F000001401402DE9F04114460E46074600F046
:10340000A1F800281BD0422000F072F800F0EAF882
:1034100090B1204600F06CF800F0E4F800F0C4F839
:1034200000F090F800280AD0432000F061F800F086
:10343000D9F8DFF8B880E8BB00F0B6F80020BDE8A6
:10344000F0810825002440214046FEF7CCFF14E01F
:103450006006040E80214046FEF7C3FF00F009F924
:1034600080214046FEF7BFFF00F003F940214046AF
:10347000FEF7B0FF08B144F001046D1EEDB2E7D2D3
:10348000802145464046FEF7ACFF3C70012E4FF0D0
:103490008001284620D0FEF7A4FF00F0EAF8402182
:1034A0002846FEF79EFF00F0E4F880212846FEF74C
:1034B0009AFF00E00AE000F0DCF880212846FEF7E1
:1034C00090FF00F0D6F8761EB6B27F1C002EB8D161
:1034D00000F06AF80120B2E7FEF783FF00F0C9F8B8
:1034E00040212846FEF77FFFDDE700000014014081
:1034F00070B505460824124E17E0FEF772FF00F083
:10350000B8F828064FF04001304602D5FEF76BFFB1
:1035100001E0FEF766FF6806050E00F0AAF88021BC
:103520003046FEF760FF00F0A4F8641EE4B24FF0EE
:1035300080013046E1D2BDE87040FEF752BF000086
:103540000014014010B5174C206820F07060206016
:10355000206840F00060206040212046FEF743FFD5
:1035600080212046FEF73FFF00F083F840212046EF
:10357000FEF730FF00280BD040212046FEF731FF38
:1035800000F077F840212046FEF724FF08B1002024
:1035900010BD40212046FEF724FF00F06AF801200C
:1035A00010BD00000014014010B50D4C80212046D4
:1035B000FEF717FF00F05DF840212046FEF711FFEF
:1035C00000F057F880212046FEF70DFF00F051F87B
:1035D00040212046FEF707FFBDE8104000F049B843
:1035E0000014014010B5124C80212046FEF7F9FE70
:1035F00000F03FF840212046FEF7F5FE00F039F8D4
:1036000080212046FEF7EFFE00F033F840212046EF
:10361000FEF7E0FE00284FF08001204603D0FEF7C1
:10362000E0FE002010BDFEF7DCFE012010BD000012
:103630000014014070B50D460446FFF783FF0028D3
:1036400012D04220FFF754FFFFF7CCFF68B1E0B281
:10365000FFF74EFFFFF7C6FF2846FFF749FFFFF7CA
:10366000C1FFFFF7A1FF012070BDFFF79DFF002004
:1036700070BD4FF4C870401E0004000CFBD17047B1
:1036800010B5072840D2DFE800F00406111B252FF3
:103690003900062100E02621A620FFF7CBFF80217C
:1036A0006020FFF7C7FF8021612029E01E21A620AE
:1036B000FFF7C0FFA0216020FFF7BCFF4021F3E728
:1036C0001E21A620FFF7B6FF40216020FFF7B2FFC2
:1036D000A021E9E71E21A620FFF7ACFF8021602092
:1036E000FFF7A8FFC021DFE71E21A620FFF7A2FFFA
:1036F00060210846FFF79EFF6021D5E74621A620FE
:10370000BDE81040FFF796BF10BD00002DE9FF4156
:10371000012140F2011000F0A5FB4FF40044ADF888
:103720000C4004208DF80F0003278DF80E7003A9BC
:103730001348FEF701FE0F210620FEF7E9FD0025E4
:103740008DF804500C208DF80500012600948DF8AA
:1037500006606846FEF7ECFB2046FEF7D1FB7802D8
:10376000FFF746F928208DF808008DF809508DF8EC
:103770000A708DF80B6002A8FFF708F9BDE8FF8119
:10378000002001402DE9F843804608981E46144663
:103790000F46002859D006211220FFF74BFF1722B1
:1037A00001216846FFF726FE9DF8001001EB980006
:1037B000C1B21720FFF73EFFC4F3870189461820E6
:1037C000FFF738FF192201216846FFF713FE9DF825
:1037D000000000EB5700C1B21920FFF72BFFC6F322
:1037E00047010D461A20FFF725FF322201216846C6
:1037F000FFF700FE9DF8000004F00304204306F0EC
:10380000010640EA860108F0030041EA001007F0D3
:10381000010140EA81113220FFF70CFF49462920BF
:10382000FFF708FF29462C20FFF704FF2A22012179
:103830006846FFF7DFFD9DF80000044344EA860177
:103840002A20FFF7F7FEBDE8F8834621A4E710B56C
:103850000446006868B1804758B120796179884290
:1038600001D2401C08E0A07A002801D10120A072FA
:1038700010BD207910B1401E207110BDA17A00202A
:10388000012900D1A072E08010BD00002DE9FE4F9B
:103890004FF6FF764FF4BE7740F23F183B46424664
:1038A000BE2100200096FEF767F81F200090E62357
:1038B000D222CC216E20FDF796FF1F2000903B46C0
:1038C0004246E6210020FDF78EFF182574A0CDE9C1
:1038D0000005012433460022CD210294702000F01F
:1038E000C1FD1F20A02200903B46E6211046FDF7B7
:1038F0009CFF1F201E2200903B46E6211046FDF74C
:1039000094FF1F20BE2200903B46E6211046FDF7A3
:103910008CFF1F2040F2311100900B4642460020E0
:10392000FDF783FF61A0009033461F22F2210320A0
:1039300000F03EFD5EA0009033461F22F221A3203E
:1039400000F036FD5BA040F23D17009033461F2289
:103950003946032000F02CFD57A0009033461F226B
:103960003946A32000F024FD4FF4FC6740F22718ED
:1039700043465522F02132200097FDF7FDFF4FF41A
:10398000784643468C22F02169200096FDF7F4FF2B
:103990004346F522F021D2200097FDF7EDFF434684
:1039A0004FF4967840F2091A4246F02150460096AC
:1039B000FDF7E2FF4FF4B97B40F23B195B4655221D
:1039C000494632200096FDF7D7FF5B468C224946D8
:1039D00069200096FDF7D0FF5B46F5224946D220CC
:1039E0000096FDF7C9FF5B464246494650460096A1
:1039F000FDF7C2FF31A0CDE900053B460022FF21C3
:103A00000294332000F02EFD2DA0CDE900053B46A9
:103A10000022FF2102946A2000F024FD27A0CDE9B6
:103A200000053B460022FF210294D32000F01AFD3E
:103A300023A0CDE900054FF485783B460022FF2105
:103A40000294404600F00EFD1CA0CDE900054FF4A5
:103A5000A5763B46002231460294332000F002FD59
:103A600017A0CDE900053B460022314602946A20AA
:103A700000F0F8FC11A0CDE900053B4600223146DC
:103A80000294D32000F0EEFC0DA0CDE900053B46EA
:103A9000002231460294404600F0E4FCBDE8FE8F6F
:103AA000B3B5CEBBD0C5CFA20000000041000000DE
:103AB00042000000430000004400000030310000DC
:103AC000303200002DE9FF5F0020A8490390A84E86
:103AD000897A012705460446012905D1317801205C
:103AE00021F0010105463170A0491031897A012980
:103AF00005D17178012421F001017170401C3378E7
:103B000096F801C0002107FA01F21A4201D0401CC8
:103B1000C0B2B94612EA0C0F01D0401CC0B2491C19
:103B200011F0FF01EFD09349B1F80080804522D217
:103B3000A0EB0800C0B2002107FA01F2DBB21A4282
:103B400003D09343401E3370C0B290B1491C11F0B2
:103B5000FF01F1D00021737807FA01F21A4203D075
:103B60009343401E7370C0B218B1491C11F0FF019D
:103B7000F1D008F0FF0002280FD00020F0717C483F
:103B80004FF0180B0079A84209D179484179A14238
:103B900005D18079012802D074E0F771EFE7234660
:103BA0002A4675A1774800F08BFF7148DFF8D8A14D
:103BB00000260571C84608FA06F0284202D04FF4E4
:103BC000784001E04FF4FC60AAF8000080B2009059
:103BD00006EBC600C0EB861707F1550207F132006D
:103BE00040F22713F021FDF7C7FE721C67A103A85E
:103BF000FCF7B0FB03AACDE9002BC14607F1330067
:103C00004FF4FC63CDF808800022FF2100F02AFC6D
:103C1000761C16F0FF06CED05548D04600254471DC
:103C20004F464FF4FC6A07FA05F0204204D04FF4E7
:103C30007840A8F8000001E0A8F800A0B8F800005B
:103C4000009005EBC500C0EB851606F1F50206F104
:103C5000D20040F22713F021FDF78EFE6A1C4BA123
:103C600003A8FCF777FB03A9CDE9001B06F1D300FD
:103C7000534600220297FF2100F0F4FB6D1C15F063
:103C8000FF05D0D03A4F4FF6E078387810B1B978C8
:103C9000814202D1B87901282BD100244E463978CF
:103CA00006FA04F0084001281FD104EBC400C0EB61
:103CB000841505F1550205F1320040F22713F02179
:103CC000CDF80080FDF758FE621C30A103A8FCF778
:103CD00041FB03A9CDE9001B05F133004FF4FC6360
:103CE00000220296FF2100F0BDFB641C14F0FF04CB
:103CF000D5D0787810B1F978814202D1B87901280D
:103D00002BD100244E46797806FA04F008400128A9
:103D10001FD104EBC400C0EB841505F1F50205F1D9
:103D2000D20040F22713F021CDF80080FDF724FEE9
:103D3000621C16A103A8FCF70DFB03A9CDE9001B2B
:103D400005F1D3004FF4FC6300220296FF2100F03E
:103D500089FB641C14F0FF04D5D00020B8713878BA
:103D6000B8707878F870BDE8FF9F00008C4500209F
:103D70004002002058020020474125642C4225645F
:103D80002C0D0A00004800402A0000203025640065
:103D90002DE9FF5F0026224D039630462B792978C6
:103DA0000DF10C084FF018094FF6FF7A4FF4784BDD
:103DB000012202FA00F41C420AD10C4208D18240CE
:103DC00018A14046FCF7C6FA287804432C7014E08A
:103DD000401C10F0FF00ECD069796B78002002FAEB
:103DE00000F40C4216D11C4214D182400FA140466F
:103DF000FCF7B0FA687804436C70CDF80080CDE928
:103E0000019653465A464FF4A071942000F02AFBC5
:103E1000BDE8FF9F401C10F0FF00E0D0F8E7000075
:103E2000400200204130256400000000423025643B
:103E300000000000044A0029516901D0014300E05C
:103E4000814351617047000000100240044A00297C
:103E5000D16901D0014300E08143D1617047000086
:103E600000100240044A0029916901D0014300E09A
:103E700081439161704700000010024030B5204A34
:103E80005168204B11F00C0103D0042901D00829FE
:103E900001D0036012E05168536801F470114FF0D3
:103EA000020413F4803F04EB914102D053689B035A
:103EB00001D5154B00E0134B5943016051680F23A6
:103EC00003EA1111114B5C5C0168E14041605468E8
:103ED000072505EA14241C5D21FA04F48460546863
:103EE00005EAD4241B5DD940C1605268032303EA6C
:103EF0009232064B1B1F9A5CB1FBF2F1016130BD9F
:103F00000010024000127A0000093D001800002055
:103F10002DE9F04FADF6641D0D461C4617464FF4D3
:103F200016616846DDF88869FCF7C2FB2948DFF8AE
:103F3000A8E04FF0310BC1888088EA46081A1FFAC2
:103F400080F9781B87B2301B80B20022CDF860095F
:103F5000DDF86039002002FB03F102EB420391FB24
:103F6000FBF606EB040808FB09EC00FB07F64FF034
:103F7000170896FBF8F62E4400EBC3081CF806C0A1
:103F8000401C80B256462AF818C01828E7D3521CA5
:103F900092B2322ADCD30021104D012700221046B4
:103FA00000EBC104C0F1070336F81440DBB2012C6A
:103FB00003D107FA03F41443E2B2401C80B208288C
:103FC000EED36A54491C89B29629E7D30DF6641DD5
:103FD000BDE8F08F380200201D0A0020B544002003
:103FE0000CB50022264800920192016841F480310C
:103FF00001604FF4A063016801F400310191009960
:10400000491C0091019911B900999942F3D10168B5
:10401000890333D5012101911A490A6842F010023F
:104020000A600A6822F003020A600A6842F002028B
:104030000A604168416041684160416841F48061C3
:104040004160416821F47C114160416841F4E8110C
:104050004160016841F08071016001688901FCD50F
:10406000416821F003014160416841F00201416073
:104070004168C1F381010229FAD10CBD01920CBD46
:1040800000100240002002402DE9FF4F81B006469B
:1040900002981C460093343083B2154606F1B600F0
:1040A00082B20298DDF83890801E81B2B01E80B2D4
:1040B000FDF762FC02980299313083B2009006F15C
:1040C000170082B23046FEF7F7FBDFF8E4B0DFF806
:1040D000E48000204FF0010C99F80010C1EB0111B1
:1040E00001EB810100EB410200211BF80270C1F1DC
:1040F00007020CFA02F3E246BB4355D02246491CA4
:1041000089B2A8F800200829F1D3401C80B2962873
:10411000E2D3294841880088491E8BB2401E82B2F2
:1041200000210846FEF7C8FB1A36B7B2DFF88CB09C
:1041300001260098029983B207F1170082B238462F
:10414000FEF7BAFB002119F80600C0EB001000EBE7
:10415000800001EB400200201BF802C0C0F1070202
:104160000AFA02F333EA0C0320D02246401C80B244
:10417000A8F800200828F1D3491C89B29629E2D377
:104180000D4841880088491E8BB2401E82B2002132
:104190000846FEF791FB1A37761CF6B2BFB2072E1F
:1041A000C7D305B0BDE8F08F2A46A8E72A46DDE769
:1041B000B1A100080008006C0607002073A30008E6
:1041C0002DE9F84F8A460AA9814691E821081C4644
:1041D0009046182D16D02038C7B20AEB0500401EB5
:1041E00083B209EB5500401E82B251464846FEF7A5
:1041F00063FB5448BBF1000F5FD000EB07100026B3
:1042000000908EE0A0F13001092902DD3738C6B2F6
:1042100000E0CEB20AF1170083B209F10F0082B2BA
:1042200051464846FEF748FB474A0127BBF1000FBD
:1042300014D006EB460002EB00100025009010F8A9
:1042400005B0002405F001070AEB5506C4F107008C
:104250000121814031EA0B011CD024E006EB46002D
:104260003A4E002102EB001C00201CF80150C0F166
:10427000070207FA02F3AB4309D03480401CC0B2F6
:104280000828F4D3491CC9B23029EDD34BE0A6F875
:104290000080F3E709EB040000EBC70080B2B1B285
:1042A0004246FDF737FB641CE4B2082CCED36D1CEC
:1042B000EDB2302D37D20098C1E70022234E00EB3B
:1042C000071710E0B95C002008E0CB0702D0A6F881
:1042D000008000E034804908401CC0B2B0EB550FAC
:1042E000F3D3521CD2B2AA42ECD31CE000980024B3
:1042F0000AEB060B875D0FE01549F807A1F800806F
:1043000007D009EB04001FFA8BF180B24246FDF79B
:1043100001FB7F08641CE4B2B4EB550FECD3761CB0
:10432000F6B2AE42E2D30B494888401E83B20888F9
:1043300001B0401EBDE8F04F82B200210846FEF7F2
:10434000BBBA0000A38B0008038900080008006CBA
:104350002A000020060700202DE9FE4F04460CA885
:104360009A4690E8600193460F46DFF8409015E0CA
:10437000B9F80020521EA24215DBB9F80210491EFE
:10438000B94210DB8DE8410153465A463946204672
:10439000FFF716FF04EB560084B26D1C2878A0F1DD
:1043A00020015E29E4D9BDE8FE8F00000607002049
:1043B0002DE9F05F9A4693460E4604460A9D44E076
:1043C00025490A88183AA24242DB49883239B1426B
:1043D0003EDB4138C7B206F1310083B204F1170069
:1043E00082B231462046FEF767FAC7EB0711DFF8C5
:1043F0006CE0DFF86C80002001EB81074FF0010CCE
:1044000000EB47021EF802300022C2F107010CFA4D
:1044100001F939EA03091DD05146521C92B2A8F89D
:104420000010082AF1D3401C80B29628E8D30A482D
:1044300041880088491E8BB2401E82B20021084686
:10444000FEF73AFA1834A4B26D1C28780028B7D1C8
:10445000BDE8F09F5946E0E706070020599F000895
:104460000008006C2DE9FF4F83B0884610A906466E
:1044700091E8B00082464FF00009DFF8D8B01DE0A7
:10448000B9F1000F20D0BBF80010491BB14218DB76
:10449000BBF80200411B414513DB4FF00009202D02
:1044A0004BD0CDE90047DDE90523182D41463046C4
:1044B0004CD0FDF729F8701986B2A41C207800288A
:1044C000DED107B0BDE8F08FBBF80020A2EB5502AB
:1044D000B242F6DBBBF802104A1B4245F1DB8028F2
:1044E00002D94FF00109E9E70D2811D01A490598C2
:1044F000102D088013D9207818218DE88300DDE97C
:10450000052341463046FFF75BFE1036B6B212E097
:1045100008EB05001FFA80F85646641C0BE0207873
:1045200041468DE8A100DDE905233046FFF748FE4E
:1045300006EB550086B2641CC0E7CDE90047DDE913
:10454000052341463046FDF7BDF8B4E7FDF74AF8CC
:10455000B1E70000060700202A00002008B501216D
:104560001120FFF77FFC0820ADF8000028208DF80F
:10457000030069460148FDF7DFFE08BD0014014055
:1045800010B54FF4A060FEF733FA00F013F800F016
:1045900043FBFDF7DFFAFDF761FEFEF785FEFEF750
:1045A000CAFCFCF7EFFCBDE8104040F635410520A1
:1045B000FDF71BBF0B484FF47A710068B0FBF1F0B8
:1045C000B0F1807F0DD220F07F414FF0E020491EF6
:1045D0004161054AF02182F8141D00218161072103
:1045E00001617047000000200FE000E010B502F00C
:1045F000B5FB03F0B7FABDE8104002F0BDBB000008
:104600000F4810B5016841F00101016041680D4A91
:104610001140416001680C4A11400160016821F4B9
:1046200080210160416821F4FE0141604FF41F01C7
:104630008160FFF7D5FC05494FF00060086010BDB0
:10464000001002400000FFF8FFFFF6FE08ED00E05A
:104650000029018802D041F0010101E021F00101AF
:104660000180704770B5028C22F480720284028C43
:104670008388848B0D8824F0730425430E894FF6BC
:10468000FF7422F4007204EA062616434A8804EAFC
:1046900002223243104EB04202D0104EB04215D129
:1046A00022F400664A8923F4405304EA022232438A
:1046B00022F480668A8804EA022232438E8904EA60
:1046C00006161E43CB8904EA031333438380858394
:1046D000C9888187028470BD002C014000340140EC
:1046E000828B22F008020A438283704770B5028CE5
:1046F00022F480520284058C8288838B0C8823F4F8
:10470000E6464FF6FF7303EA0424344325F40056CB
:104710000D8903EA053535434E8803EA06362E43F4
:10472000094DA84202D0094DA84205D122F4804586
:104730008A8903EA82122A4382808483C988A0F886
:104740004010068470BD0000002C01400034014080
:10475000828B4FF6FF7322F4006203EA01211143BA
:104760008183704781877047A0F840107047000030
:1047700030B502881B4C1C4DA0420DD0A8420BD076
:10478000B0F1804F08D0194B984205D0184B984291
:1047900002D0184B984203D122F070034A881A4382
:1047A000154B984206D0154B984203D022F4407323
:1047B000CA881A4302808A8882850A880285A042B4
:1047C0000AD0A84208D00E4A904205D00D4A904225
:1047D00002D00D4A904201D1097A018601218182DD
:1047E00030BD0000002C01400034014000040040B6
:1047F00000080040000C0040001000400014004081
:104800000040014000440140004801402DE9FC41C6
:10481000002421461FA001F0F1FF23490022086077
:10482000114622A002F06CFE2449002208601146C5
:1048300023A002F065FE26494FF4FA7300220860B7
:1048400002200090234924A003F0F0F9294F07F13A
:104850001006B86004EB440512A156F83500FBF7CA
:1048600079FF002813D006EBC5004269017CCDE931
:104870000012001D90E80E0056F8350002F0BFFF50
:10488000F86008B103F0D6F8641CE4B2E2E7BDE8D2
:10489000FC810000496E7370656374696F6E5F65BB
:1048A00076656E7400000000FC0200206578697473
:1048B0005F726563765F73656D000000F40200202F
:1048C000656E74725F726563765F73656D0000007C
:1048D000F8020020BD240008496E73706563746996
:1048E0006F6E5F50726F63657373536F6674546954
:1048F0006D6572005402002070B51A4D40F22551CA
:10490000284600F047F8184CC0B1284600F0D0F80F
:10491000C2B2B4F8000440F2FF31C0F30E00884286
:104920000CD2B4F80004C0F30E01B4F8000463180C
:10493000491C61F30E00A4F800041A7040F22441EF
:10494000284600F027F801280AD1B4F8000440F402
:104950000040A4F800042846BDE8704000F0A8B864
:1049600070BD00000048004004030020C9430180DE
:1049700070470029818902D041F4005101E021F4FF
:104980000051818170470246002012880A4200D0FF
:104990000120704770B501F01F0501260024C1F306
:1049A000421306FA05F2012B0FD0022B0FD0838A97
:1049B0004FEA11210088134206FA01F600EA0600C8
:1049C00001D000B10124204670BD8389F0E7038A3D
:1049D000EEE710B5C1F3421301F01F040121A1401D
:1049E000012B07D0022B07D01430002A026805D013
:1049F0000A4304E00C30F8E71030F6E78A4302601F
:104A000010BD000030B50446008A85B00D464CF656
:104A1000FF710840E98801432182A0894EF6F31115
:104A20000840A9882A8911436A8902431143A18158
:104A3000A08A4FF6FF410840A9890143A182684638
:104A4000FFF71CFA1948844201D1039800E002984C
:104A5000A189090400EBC00101EB0010296801D510
:104A6000490000E08900B0FBF1F06422B0FBF2F1F4
:104A700009010B096FF018056B4300EB8300A38954
:104A80001D044FF0320306D503EBC000B0FBF2F07B
:104A900000F0070005E003EB0010B0FBF2F000F0BF
:104AA0000F000843208105B030BD000000380140F0
:104AB0008088C0F308007047C1F308018180704707
:104AC0000FB42DE9FF4106460CAC00250FE05C2930
:104AD00015D000F1010025290B901ED03046FFF7BC
:104AE000EBFF80213046FFF74EFF0028F9D00B98EE
:104AF00001780029EBD1BDE8FF015DF814FB401CF3
:104B00000B9001786E2903D072291BD10D2100E092
:104B10000A213046FFF7D0FF13E00178642914D052
:104B200073290FD180CC09E03046FFF7C5FF802103
:104B30003046FFF728FF0028F9D07F1C397800297C
:104B4000F2D10B98401C0B90CBE702CC00276846B3
:104B500000291FD007DA4FF02D028DF80020C1F197
:104B6000000100F1010042F210724FF00A0C91FBBB
:104B7000F2F353EA070E06D003F1300700F8017B89
:104B800003FB1211012792FBFCF2002AEFDC0570F7
:104B90006F460FE030208DF800008DF80150F7E7E8
:104BA0003046FFF789FF80213046FFF7ECFE0028F2
:104BB000F9D07F1C39780029F2D1C2E770B50446DC
:104BC0000068144DA0B1804790B120796179884286
:104BD00001D2401C0FE0A07A00280DD10120A07264
:104BE000024604F10C01A868BDE8704002F043BB26
:104BF000207910B1401E207170BDA07A00260128D6
:104C000006D1A672012204F10B01A86802F033FB61
:104C1000E68070BD4002002070B586B001210420FE
:104C2000FFF720F901214804FFF710F918208DF84B
:104C300013000425194EADF8105003248DF81240CE
:104C400004A93046FDF778FB8DF813500820ADF825
:104C500010008DF8124004A93046FDF76DFB4FF4AB
:104C6000E13000900020ADF80800ADF804000C2100
:104C70000B4CADF80600ADF80A10ADF80C00694613
:104C80002046FFF7BFFE01212046FFF772FE4021BC
:104C90002046FFF76BFE06B070BD00000008014023
:104CA000004400402DE9FF5F3C4D002603966888D4
:104CB0000A24B0FBF4F130318DF80C10B0FBF4F1A4
:104CC00004FB110018270DF10C083030CDE90087E6
:104CD0008DF80D004FF6FF7A4FF4784B53465A4645
:104CE00050210296B420FFF7BDFB2888CDF8008044
:104CF000B0FBF4F130318DF80C10B0FBF4F104FB93
:104D0000110030308DF80D00CDE9017653465A463A
:104D10006B21B420FFF7A6FB688829884FF064094F
:104D2000401A80B2A880801DB0FBF9F209FB120185
:104D3000B1FBF4F130318DF80C10B0FBF4F104FB51
:104D4000110030308DF80D00CDF80080CDE90176EE
:104D500053465A468621B420FFF784FBA888CDF835
:104D60000080C0F1020090FBF9F209FB120191FBF7
:104D7000F4F130318DF80C1090FBF4F104FB1100CC
:104D800030308DF80D00CDE9017653465A46A12109
:104D9000B420FFF767FBBDE8FF9F0000540200202E
:104DA0000EB54FF480711D48FDF71DFBFCF70CFE9E
:104DB0000020FCF773FF1AA11CA0FCF7F9FE0028E5
:104DC000F9D00020FCF7A8FE05231BA21CA100209F
:104DD000FCF70CFF0028F7D0FDF702F80028FBD005
:104DE000FDF76EFB0022102119A08DE807004FF699
:104DF000FF733A217020FFF735FBFFF753FF15488B
:104E0000806808B102F04EFF13480068002803D004
:104E1000BDE80E4002F046BF0EBD0000000C014090
:104E20003838383838383838000000005468696E2F
:104E30006B426F6F6B0000003633343500000000AA
:104E40003139322E3136382E302E313030000000DC
:104E5000D2D100005402002000030020002806D018
:104E60000E4910F0FF0F03D0C0B2085C401C704721
:104E700010F47F4F04D0C0F30720085C093070475E
:104E800010F47F0F04D0C0F30740085C1130704766
:104E900001EB10600078193070470000E8860008C8
:104EA00003480168814201D001207047002070470B
:104EB000F40100202DE9F74F88B089460746002508
:104EC00000E06D1C785D202803D0092801D04D45F5
:104ED000F7D34FF0FF3B7DB31A48A8460026AD1D1F
:104EE000DFF864A0046810E0062218A12068FBF730
:104EF00034FB48B9206842463946801DFBF72DFB3C
:104F000010B92068405DC0B10834DAF8000084426E
:104F1000EAD38EB120216846FBF7CAFB6A464946B0
:104F2000384601F0E9FA38B16946B0470A99086095
:104F300000200BB0BDE8F08F01E06668E9E7584655
:104F4000F7E70000180200201C0200205F5F636D7D
:104F5000645F00002DE9FC4119460446DDE908378D
:104F6000DDE90A651C3040600060C4E90A21C4E93B
:104F70000C373A4623211846243402F061F8D4E96C
:104F800003014218D4E901010D4B121F01F0C8FEC4
:104F90002060A67666760020A562E061E562606129
:104FA00020766066A066243C009023460190054A66
:104FB000194604F1540002F060FE0020BDE8FC81B7
:104FC00049780008A37A000810B5029C24F0010477
:104FD0004474C0E909120021C0E90B3100EBC102A1
:104FE0001C32491C526012600129F7DB10BD10B55C
:104FF000002200EBC201521CF1E90734012A5C6077
:10500000D1E90034236049600960F2DB10BD000083
:105010002DE9FE4F18253DA0CDE9000501244FF6EE
:10502000FF774FF478464FF4CC783B463246414602
:1050300002940420FFF716FA35A0CDE900053B469F
:105040003246414602944C20FFF70CFA31A0CDE9DC
:1050500000053B463246414602949420FFF702FA8F
:105060002DA0CDE900053B46324641460294DC20A6
:10507000FFF7F8F929A0CDE900053B463246414645
:1050800002944FF49270FFF7EDF90025A146B04667
:105090004FF0340A4FF4D2774CF2186B05EBC5048D
:1050A0000AEBC4064BF64043142239463046FCF75F
:1050B0003BFC3046434614223946FCF771FB48203E
:1050C00000EBC40220205E4600EBC4004FF4EB73FB
:1050D0004FF4E171CDF800B0FCF74EFC05F1410151
:1050E0001020C9B2CDE900103120CDF8089000EBB6
:1050F000C400334642464FF4E271FFF761F86D1C7D
:10510000EDB2042DCAD3BDE8FE8F0000D1CC000063
:10511000CEED0000BEAF0000B1A80000B5C6000093
:1051200010B51BA001F07CFE1C4C21781CA001F0E6
:1051300077FE2078C00702D01FA001F071FE207812
:10514000800702D51FA001F06BFE2078400702D532
:105150001FA001F065FE2078000702D520A001F015
:105160005FFE2078C00602D520A001F059FE20780D
:10517000000607D509480F300168BDE810401DA0A2
:1051800001F04EBEBDE810401EA001F049BE000077
:10519000627573206661756C743A0A0029ED00E04F
:1051A0005343425F434653525F424653523A30782C
:1051B00025303258200000004942555345525220B4
:1051C0000000000050524543495345525220000010
:1051D000494D50524543495345525220000000006A
:1051E000554E53544B4552522000000053544B45EA
:1051F000525220005343422D3E424641523A2530FE
:1052000038580A000A0000001CB502200090012353
:1052100000220B490BA002F009FD0F494FF48073E7
:10522000002208600A210520CDE900010B490CA0ED
:1052300002F0E5FA08B102F0FDFB00201CBD000001
:1052400079240008496E5F50726F63657373536F02
:10525000667454696D657200000300207152000885
:10526000627574746F6E5F70726F63657373000044
:1052700008B500230A2201213CA001F003FF3E4CA7
:10528000A06010B13DA001F0CBFDFBF7EBFD3A4F64
:105290000025414EDFF80491DFF804A14FF4AF6818
:1052A0004FF4C86B0C374FF0FF3301226946A068FA
:1052B00001F02DFF010003D03AA001F0B1FDF2E7AB
:1052C0009DF800000B284CD2DFE800F04B070D06DC
:1052D000181D1F062A2F3A00E5E7E0790028E2D1E1
:1052E00038480570DFE70121306801F0F6FA4FF425
:1052F00080514846FDF76EF80028D4D0414650460C
:10530000FFF732FACFE73048EBE70221306801F0CF
:10531000E4FA4FF480414846FDF75CF80028C2D01B
:1053200059465046FFF71EFABDE73120124A787001
:105330000C3226A12748FFF7C3FB4FF4784309E05E
:1053400030200D4A78700C3220A12248FFF7B8FBBC
:105350004BF6404314224FF4D2713420FCF7E4FAA8
:10536000A1E71DA001F05CFD9DE70000627574746B
:105370006F6E5F6D710000004002002062757474F2
:105380006F6E5F6D71206372656174652073756304
:10539000636573730A0A0000FC020020001C0140D0
:1053A00000040040CAFDBEDDBDD3CAD5B4EDCEF3C6
:1053B000A3ACB4EDCEF3B4FAC2EB3A3078256C78F6
:1053C0000A0A00002F000020CB00002025730D0AE0
:1053D00000000000004800404E6F20627574746F3A
:1053E0006E204D657373616765210A0A0000000035
:1053F00010B500F071FC002010BD10B500F0C8FD24
:10540000002010BD0EB5DFF8A490294C4FF0FF3AF4
:105410005146D9F8000002F0B3F80028F8D1A0688E
:1054200008B102F08FFC234E4FF400650020FDF719
:10543000E9FA28B929463046FCF7CCFF0028F5D018
:1054400018261DA0CDE9000601254FF6FF774FF481
:10545000A0783B460022414602954C20FFF702F817
:1054600017A0CDE900063B46002241460295C42024
:10547000FEF7F8FFFCF794FDFEF78AFC502002F0DF
:105480008DFA4FF416711048FFF76EF9142002F0F0
:1054900085FA60886421401C80B2B0FBF1F201FB08
:1054A00012006080FFF7FEFBB2E70000F802002068
:1054B00054020020001C0140C7EBC7B0CDF900002A
:1054C000B3B5CEBB00000000000400401B4F1C4DD4
:1054D0001C4CDFF874B04FF0FF394FF400564FF416
:1054E000167A4FF064084946386802F049F80028F7
:1054F000F9D1A06808B102F025FC0120FDF782FA7D
:1055000028B931462846FCF765FF0028F5D0FCF79E
:10551000A7FD502002F042FA51465846FFF722F903
:10552000142002F03BFA2088401C80B2B0FBF8F255
:1055300008FB12002080FFF7B5FBD4E7F40200203F
:10554000001C01405402002000040040104810B527
:10555000416991F82910890703D40E490020087089
:1055600013E0016921B180220A48FBF7C8F80CE07A
:1055700000F0C0FF08B108A100E009A10548FAF752
:10558000A9FF09A10348FBF733F8024810BD00004A
:10559000180200209C0900206D73682000000000A4
:1055A00066696E73682000003E0000000349496987
:1055B00011F8292F60F341020A7070471802002089
:1055C000014AC2E900017047180200207CB5164963
:1055D0001648FFF7F5FF8021012001F0D7F8144DA0
:1055E0006861D0B10A210620CDE900014FF4806343
:1055F0000022104910A002F002F9044600231A46C6
:105600000FA1686901F08CFF0120FFF7CFFF14B1F3
:10561000204602F00FFA00207CBD0BA001F000FC38
:105620004FF0FF307CBD000020B1000880B00008C2
:105630001802002061560008747368656C6C0000E5
:1056400073687278000000006E6F206D656D6F7278
:105650007920666F72207368656C6C0A0000000028
:10566000984E706910F8291F41F001010170FFF791
:105670006DFF01F0D5FB002501F00CFA0400FBD40E
:105680001B2C07D0706990F82810012907D0022937
:105690000ED017E07169012081F82800ECE75B2C3F
:1056A00002D080F828500DE0022180F82810E3E7AE
:1056B00080F82850412CDFD0422CDDD0442C38D04B
:1056C000432C42D0002CD7D0FF2CD5D0092C4DD064
:1056D0007F2C74D0082C72D00D2C6FD00A2CFCD0EB
:1056E000B0F87A10502901D3A0F87A50B0F87C3085
:1056F000B0F87A108B427CD2CA1A00F12A012B3002
:105700001944184401F085FC7069B0F87C102A3007
:105710000C54706990F82910C90706D0B0F87C10B5
:105720002A30014468A001F07BFB7069B0F87C402E
:10573000A4E0B0F87C0000289ED064A001F070FBCB
:10574000706930F87C1F491E0EE0B0F87C10B0F88C
:105750007A20914290D22A30095C5DA001F060FB72
:10576000706930F87C1F491C018085E7002403E044
:1057700056A001F055FB641C7069B0F87C00A04293
:10578000F6DC746953A02A3401F04AFB00F0B2FE43
:10579000012802D1204600F0EFFDFFF7D7FE0146B9
:1057A00022464DA001F03CFB70692A30FAF7B6FEA4
:1057B000716921F87A0F48805EE700E03DE0B0F8BB
:1057C0007C20002AD1D0B0F87A10521E491E89B22E
:1057D00093B2A0F87A10A0F87C30994224D9CA1A62
:1057E00000F12B012A301944184401F012FC7069B1
:1057F00000E049E0B0F87A102A300D547069B0F832
:105800007C102A30014436A001F00AFB7069B0F820
:105810007C4003E02DA001F003FB641C7069B0F82C
:105820007A00A042A1DBF5E72FA001F0F9FA706938
:10583000B0F87A102A300D541EE700F05BFE012804
:105840000DD1706990F82900C00702D021A001F0A5
:10585000E7FA7069B0F87A102A3000F0E3FDFFF73C
:1058600075FE01F0DDFA706950212A30FAF7FEFE6C
:10587000706922E015A001F0D3FA641C7069B0F8D9
:105880007A00A042F6DC0AE02A300C54706990F8E5
:105890002900C00703D021460DA001F0C1FA7069AC
:1058A000B0F87A10491C89B2A0F87A10B0F87C20C0
:1058B000521CA0F87C205029BED320F87A5F458086
:1058C000DAE600001802002025730000080000003E
:1058D000256300000A000000257325730000000006
:1058E00008257320200800000820080010B5124C7D
:1058F0002068800702D511A001F092FA20684000CC
:1059000011D50D48C01E007808B1FFF709FC0A4800
:10591000001F007808B100F0C3FC0748801E008813
:1059200008B102F0A3FB2068002804DABDE81040AB
:1059300008A001F075BA10BD2CED00E06661696C3D
:10594000656420766563746F722066657463680AA7
:10595000000000006465627567206576656E740AF4
:105960000000000010B502A001F05AFA002010BD9E
:1059700048656C6C6F2052542D54687265616421C7
:105980000A00000070B50BA001F04AFA0E480F4D56
:1059900004680AE002220EA12068FAF7DEFD18B1C1
:1059A0000CA0216801F03CFA083428688442F1D345
:1059B000002070BD2D2D46756E6374696F6E204C8E
:1059C0006973743A0A000000180200201C020020CB
:1059D0005F5F000025730A002DE9F04190B00026BA
:1059E0002BA4082302AA04210AA800F08DF810278E
:1059F0002246394628A001F013FA384600F0E4FDAB
:105A00002EA001F00DFA0AA9304600F08FF80646E4
:105A1000002420E002A850F82450143DFAF720FC9E
:105A2000297C9DF8302021F08001914202D0FAF7C4
:105A30001BFC0FE0FAF718FC05F11C00804601F092
:105A400029FA88B1686A00902B461022394623A0B3
:105A500001F0E6F9641C0E98A042DBDC002ED2D1E6
:105A600010B00020BDE8F081404601F01AFA696AE2
:105A7000CDE900102B46102239461DA001F0D0F9C7
:105A8000404602F0C7FA0CA001F0CAF9E2E70000B4
:105A90006576656E74000000252D2A2E7320202067
:105AA0002020207365742020202073757370656E2C
:105AB00064207468726561640A00000020202D2D46
:105AC0002D2D2D2D2D2D2D2D202D2D2D2D2D2D2D13
:105AD0002D2D2D2D2D2D2D0A00000000252D2A2ED7
