:020000040800F2
:10000000C8C9002049010008513000081302000847
:100010004D300008B10D0008A55A0008000000008E
:10002000000000000000000000000000E14A00089D
:10003000A5150008000000009B01000815530008EA
:100040006301000863010008630100086301000800
:1000500063010008630100086301000863010008F0
:1000600063010008630100086301000863010008E0
:1000700063010008630100086301000863010008D0
:1000800063010008630100086301000863010008C0
:10009000630100086301000863010008A52100084E
:1000A00063010008630100086301000863010008A0
:1000B0006301000863010008630100086301000890
:1000C0006301000863010008630100086301000880
:1000D000630100086301000863010008ED56000891
:1000E0003D21000863010008630100086301000866
:1000F0006301000863010008630100086301000850
:10010000630100086301000863010008630100083F
:10011000630100086301000863010008630100082F
:10012000630100086301000863010008630100081F
:10013000DFF810D000F0F2FA0048004797070008F7
:10014000AFF30080C8C90020064880470648004732
:10015000FEE7FEE7FEE7FEE7FEE7FEE7FEE7FEE777
:10016000FEE7FEE72553000831010008EFF3108099
:1001700072B6704780F310887047334A1368012BBA
:1001800004D04FF001031360304A1060304A116010
:1001900030484FF0805101607047EFF3108272B623
:1001A0002948016891B14FF00001016027480168BA
:1001B00029B1EFF3098121E9F00F006801602449BA
:1001C00009680968B1E8F00F81F3098882F31088A3
:1001D0004EF0040E70471E4908601C494FF00000A5
:1001E000086019494FF0010008601B484FF47F0177
:1001F000D0F8002041EA0201016016484FF080511A
:10020000016016480068006880F3088861B662B62D
:1002100070471EF0040F0CBFEFF30880EFF3098066
:1002200020E9F00F40F804ED1EF0040F0CBF80F33E
:10023000088880F3098800B507F078FF5DF804EBC3
:100240004EF0040E70470000140200200C02002043
:100250001002002004ED00E020ED00E008ED00E0D9
:1002600040EA01039B0703D009E008C9121F08C038
:10027000042AFAD203E011F8013B00F8013B521EB8
:10028000F9D27047D2B201E000F8012B491EFBD22F
:1002900070470022F6E710B513460A460446194691
:1002A000FFF7F0FF204610BD421E12F8013F002B61
:1002B000FBD111F8013B02F8013B002BF9D170474B
:1002C00030B505462A460B4612F8010B13F8014BD0
:1002D00008B1A042F8D01CB1002802D06D1CF1E793
:1002E000284630BD10B5044604E00B7800F8013B09
:1002F00003B1491C521EF8D2204610BD421C10F812
:10030000011B0029FBD1801A704710B5002200E0C4
:10031000521C835C8C5CA34201D1002BF8D1D8B273
:10032000E1B2401A10BD034611F8012B00F8012B71
:10033000002AF9D11846704730B50546002003461B
:1003400000E05B1C934205D2EC5CC85C201A01D132
:10035000002CF6D130BD2DE9FE4F804681EA030026
:10036000C00F0C46009021F0004123F00045B8EB8F
:100370000200A94105D24046214690461C460B4644
:10038000024623F00040104347D0270DC7F30A0070
:10039000C3F30A510290401A019040286BDAC3F36C
:1003A000130040F4801B0098924620B10023D2EB4A
:1003B000030A63EB0B0B01985946C0F1400250460B
:1003C00000F01EF906460D4650465946019A00F0C7
:1003D00036F910EB08006141002487EA115284EAE3
:1003E000E7731A4340D0009A62B3019A012A4FEA98
:1003F000075215DC001B61EB02014FF0004202EADC
:100400000752CDE90042001C41F5801132462B46CF
:1004100000F036F903B0BDE8F08F40462146F9E719
:10042000001B61EB0201001C41F5801300185B41C9
:100430002018A2F5001747EB030140EAD570B61962
:100440006D4111E06D084FEA360645EAC0754FEA86
:100450000752001B61EB0201001C41F580114908A5
:100460004FEA30000019514132462B4603B0BDE837
:10047000F04F00F0F6B80098012240000023D0EBC6
:10048000020263EBE073009821464FEAE074B8EB98
:10049000000061EB0401E9E783F000435BE781F0D2
:1004A000004158E72DE9FE4F81EA030404F00044BF
:1004B00021F0004100944FF0000B23F0004350EA7C
:1004C00001045ED052EA03045BD0C3F30A54C1F3C3
:1004D0000A552C44A4F2F3340194A0FB0254C1F356
:1004E000130141F48011C3F3130343F4801301FBA0
:1004F000024400FB034E840A970A44EA815447EA07
:100500008357A4FB076802958D0A05FB07854FEA10
:10051000932C04FB0C542705029D4FEA065847EA2A
:100520001637B5EB08056EEB070C870E920E47EAFF
:10053000811742EA8312A7FB0201B6EB0B0164EBC1
:1005400000042B0D43EA0C335E1844EB1C50DA46D2
:100550005146E7FB0201C5F313044FEA0B3343EAAC
:1005600014534FEA0432019C43EA0603A4F10C043D
:100570000294009CCDE900B400F082F803B0BDE81D
:10058000F08F00200146F9E70EB540F233410291A9
:100590000021CDE900110A460B4600F071F803B0C6
:1005A00000BDC1F30A5210B5C1F3130140F2FF338D
:1005B00041F480119A4201DA002010BD40F2334329
:1005C0009A42A2F2334203DC524200F028F810BDF6
:1005D000904010BD30B50B4601460020202201247A
:1005E00009E021FA02F59D4205D303FA02F5491B01
:1005F00004FA02F52844151EA2F10102F1DC30BD17
:10060000202A04DB203A00FA02F1002070479140D2
:10061000C2F1200320FA03F3194390407047202AC7
:1006200004DB203A21FA02F00021704721FA02F39C
:10063000D040C2F120029140084319467047202A59
:1006400006DBCB17203A41FA02F043EAE07306E0FA
:1006500041FA02F3D040C2F120029140084319460A
:10066000704710B5141E73F1000408DA401C41F104
:10067000000192185B411A4301D120F0010010BD26
:100680002DE9F04D92469B4611B1B1FA81F202E09C
:10069000B0FA80F220329046FFF7B2FF04460F46D0
:1006A00040EA0A0041EA0B0153465A46084313D078
:1006B000114653EA010019D0C8F140025046FFF735
:1006C000AEFF05460E46504659464246FFF798FF94
:1006D000084305D0012004E020463946BDE8F08DEE
:1006E0000020054346EAE0762C4337430A98630529
:1006F000E40AA0EB08000022FD0A44EA47540A304D
:1007000002D500200146E9E7010510196941DDE93C
:10071000084500196941BDE8F04DA2E7064C074DB8
:1007200006E0E06840F0010394E8070098471034C1
:10073000AC42F6D3FFF700FDDCC50008FCC500089D
:1007400070B58C1810F8015B15F0070301D110F893
:10075000013B2A1106D110F8012B03E010F8016BC0
:1007600001F8016B5B1EF9D12B0705D40023521E43
:100770000DD401F8013BFAE710F8013BCB1A921CAB
:1007800003E013F8015B01F8015B521EF9D5A142A9
:10079000D8D3002070BD10B509F01CF9002010BDA1
:1007A0002DE9F04F8FB082464FF4A0700D90F020ED
:1007B0000C908548C08884498988401A1FFA80FBBC
:1007C000BAF1010F7DD1002477E0002670E000BF70
:1007D00000254FF480407D494861084680684FF409
:1007E0007F4101EA80154FF48040784908614861F3
:1007F00008468068C0F3870005434FF480400861D5
:1008000000BF71480088A04250DC6F484088A04279
:100810004CDD6D488088B04248DC6B48C088B042EF
:1008200044DDEF12C5F3841805F01F094846FFF7B1
:10083000ABFE674A674BCDE90401FFF733FECDE914
:1008400008014046FFF7A0FE634A644BCDE9000172
:10085000FFF728FECDE904013846FFF795FE4FF07B
:1008600033325F4BCDE90001FFF71CFECDE90201F9
:10087000DDE90423FFF76FFDCDE90601DDE908237B
:10088000FFF769FDCDE90A01FFF78BFE85B2172D51
:1008900001DB012500E000254B490988611A01FBB5
:1008A0000B61494A9288891A4E4A5554701C86B287
:1008B000B6F5A07F8BDB601C84B2F02C85DB7FE07B
:1008C000FFE700247AE0002673E000BF00254FF424
:1008D00080704549086044480C3800684FF47F41F7
:1008E00001EA00254FF480703F49091F0860091D87
:1008F00008603D480C380068C0B205438815091FE0
:10090000086000BF30480088A04250DC2E48408874
:10091000A0424CDD2C488088B04248DC2A48C08880
:10092000B04244DDEF12C5F3841805F01F094846B4
:10093000FFF72AFE264A274BCDE90401FFF7B2FD57
:10094000CDE908014046FFF71FFE234A234BCDE9BE
:100950000001FFF7A7FDCDE904013846FFF714FEBB
:100960004FF033321E4BCDE90001FFF79BFDCDE97F
:100970000201DDE90423FFF7EEFCCDE90601DDE924
:100980000823FFF7E8FCCDE90A01FFF70AFE85B26C
:10099000192D01DB012500E000250B490988611AAA
:1009A00001FB0B61084A9288891A0E4A5554701C43
:1009B00086B2B6F5A07F88DB601C84B2F02C82DBA7
:1009C0000FB0BDE8F08F000034020020002001408D
:1009D000295C8FC2F528BC3FE17A14AE47E1E23FC3
:1009E0003333D33F290A0020141C01402DE9F14F75
:1009F000ADF5227D4FF4A070A090F0209F904FF0B5
:100A0000000A002500209B909A90F0215DA8FFF736
:100A100040FC4FF4A0710DA8FFF73BFC00200C90A8
:100A2000A29801287ED14FF00B0B00248BE04FF0F1
:100A3000000873E000BF4FF000094FF48040D44934
:100A40004861084680684FF47F4101EA80194FF4FD
:100A50008040CF490861486108468068C0F387003C
:100A600040EA09094FF48040086100BF4FEAE920DD
:100A70009E90C9F384109D9009F01F009C909C9853
:100A8000FFF782FDC34AC44BCDE90401FFF70AFD1D
:100A9000CDE908019D98FFF777FDC04AC04BCDE92D
:100AA0000001FFF7FFFCCDE904019E98FFF76CFD04
:100AB0004FF03332BB4BCDE90001FFF7F3FCCDE93A
:100AC0000201DDE90423FFF746FCCDE90601DDE97B
:100AD0000823FFF740FCCDE90A01FFF762FDC7B22A
:100AE0000C98012802D10DA800F80870BA4506DD5F
:100AF000AAEB0700032808DD681C85B205E0A7EB18
:100B00000A00032801DD681C85B2182D01D1CDF83B
:100B10006882BA4608F101001FFA80F8B8F5A07F94
:100B200088DB00E013E05DA90D5500200C909B9838
:100B3000854204DD99949A9E01200C909B95002596
:100B4000AA46601C84B2F02CFFF671AF93E04FF020
:100B50000B0B00248CE04FF0000876E000BF4FF054
:100B600000094FF48070904908608F480C38006885
:100B70004FF47F4101EA00294FF480708A49091F30
:100B80000860091D086088480C380068C0B240EA57
:100B900009098815091F086000BF4FEAE9209E90E7
:100BA000C9F345109D9009F01F009C909C98FFF799
:100BB000EBFC784A784BCDE90401FFF773FCCDE9F3
:100BC00008019D98FFF7E0FC744A754BCDE90001E0
:100BD000FFF768FCCDE904019E98FFF7D5FC4FF0C4
:100BE0003332704BCDE90001FFF75CFCCDE9020127
:100BF000DDE90423FFF7AFFBCDE90601DDE90823BA
:100C0000FFF7A9FBCDE90A01FFF7CBFCC7B20C98AF
:100C1000012802D10DA800F80870BA4506DDAAEB3C
:100C20000700032808DD681C85B205E0A7EB0A0071
:100C3000032801DD681C85B2182D01D1CDF868822A
:100C4000BA4608F101001FFA80F8B8F5A07F85DBED
:100C50005DA90D5500200C909B98854204DD999468
:100C60009A9E9B9501200C900025AA46601C84B298
:100C7000F02CFFF670AF999C0CE05DA8005D0A288F
:100C800001DA681C85B2032D02DD4848448003E088
:100C9000601C84B2F02CF0DB00BF0025999C0CE0B6
:100CA0005DA8005D0A2801DA681C85B2032D02DD0B
:100CB0003E48048003E0601E84B2002CF0DC00BFDC
:100CC000002534460FE00DA8005D584502DA681C87
:100CD00085B200E00025042D03DD601933498880CA
:100CE00003E0601E84B2002CEDDC00BF14B90020CC
:100CF0002E498880002534460FE00DA8005D584538
:100D000002DA681C85B200E00025042D03DD601BBB
:100D10002649C88004E0601C84B2B4F5A07FECDBF7
:100D200000BFB4F5A07F03D140F23F101F49C88037
:100D30001E48C0881D498988401AE62823DD1B48C3
:100D4000C088801B19498988711A884208DAE62010
:100D500000EB46001549C988401A1449888012E002
:100D60001248C088801B11498988711A884205DDA4
:100D70000E488088E6300D49C88004E006F1640022
:100D80000A49C88088800DF5237DBDE8F08F0000FA
:100D900000200140295C8FC2F528BC3FE17A14AEE7
:100DA00047E1E23F3333D33F141C014034020020BB
:100DB00000BFFEE710B504462068B0B12068804748
:100DC00098B120796179884203DA2079401C20713A
:100DD00010BDA07AE8B90120A072012204F10C0133
:100DE0000D48006807F0C5FDF2E7207918B12079B9
:100DF000401E2071ECE7A07A012808D10020A072E3
:100E0000012204F10B010448006807F0B2FD002044
:100E1000E08000BFDCE700004C02002010B504F0C9
:100E20001FFA01F05FFD00F027F810BD10B50B4868
:100E3000FFF7C0FF0A48FFF7BDFF0A48FFF7BAFFF8
:100E40000948FFF7B7FF094803F0ECF9084803F039
:100E5000E9F9084804F0F2FD10BD000058450020F3
:100E600068450020784500208845002098450020EE
:100E7000A8450020B84500203D483E4908600020B4
:100E800008710A2048710020C8804FF47A700881E8
:100E9000002088720220C872012008733648374942
:100EA0000860002008710A2048710020C8804FF4B3
:100EB0007A700881002088720420C87203200873A9
:100EC0002F4830490860002008710A20487100202E
:100ED000C8804FF47A700881002088720620C8729A
:100EE00005200873284829490860002008710A2055
:100EF00048710020C8804FF47A7008810020887201
:100F00000820C87207200873214822490860002081
:100F100008710A2048710020C8804FF47A70088157
:100F200000208872C87208731B481C4908600020A2
:100F300008710A2048710020C8804FF47A70088137
:100F400000208872C872087315481649086000208E
:100F500008710A2048710020C8804FF47A70088117
:100F6000002088720A20C8720920087370470000A8
:100F7000B12A000858450020CD2A00086845002005
:100F8000E92A000878450020052B00088845002044
:100F9000212B0008984500203D2B0008A845002083
:100FA000592B0008B845002008B500BF02F0D6FD57
:100FB0000128FBD100BF02F093FB0128FBD10020E8
:100FC00002F000FE002002F050FD002002F01BFDA8
:100FD000002002F05EFD002003F00EF8002002F079
:100FE000B3FB002002F04EFB002002F019FB0020B2
:100FF00002F05CFB002002F032FC0020F0234FF4F2
:10100000A0720146009003F099F80020F0234FF4FD
:10101000A0720146009002F082FC08BD2DE9F04369
:1010200084460027BCF1000F03D0BCF1010F73D13F
:1010300038E0002133E00022002323E0C1EB011857
:1010400008EB880803EB4808DFF8449119F808809A
:10105000DFF8409119F8039088EA090500240BE0B5
:1010600045FA04F808F001060EB1521E00E0521CC9
:1010700004F1010808F0FF04082CF1DB03F101087A
:1010800008F0FF03962BD9DB002A00DA00229742F2
:1010900001DA97B2084601F1010808F0FF010329BF
:1010A000C9DB72E00A2133E00022002323E0C1EB18
:1010B000011808EB880803EB4808DFF8DC9019F802
:1010C0000880DFF8D09019F8039088EA0905002419
:1010D0000BE045FA04F808F001060EB1521E00E0DC
:1010E000521C04F1010808F0FF04082CF1DB03F1A5
:1010F000010808F0FF03962BD9DB002A00DA002252
:10110000974201DA97B2084601F1010808F0FF01A1
:101110001529C9DB39E0FFE7002133E00022002375
:1011200023E0C1EB011808EB880803EB4808DFF85F
:10113000689019F80880DFF85C9019F8039088EA45
:10114000090500240BE045FA04F808F001060EB189
:10115000521E00E0521C04F1010808F0FF04082CA4
:10116000F1DB03F1010808F0FF03962BD9DB002A1D
:1011700000DA0022974201DA97B2084601F101082D
:1011800008F0FF011529C9DB00BF00BFBDE8F083EF
:101190006BB60008C14400202DB800082DE9F04FBF
:1011A00091B00027B946202109A8FFF772F8202145
:1011B00001A8FFF76EF8F5484088F4490988401AFD
:1011C0001FFA80FAF148C088F0498988401A1FFA4E
:1011D00080F850460AEBD0714D101BE000240DE062
:1011E00005FB084086B2EA48815D0246701C105C2F
:1011F000814201D0781C87B2601C84B2A8F1010042
:10120000A042EDDC0A2F02DAE048458004E0002726
:10121000681C85B25545E1DB00BF17B9DB48A0F873
:1012200002A0002750460AEBD071C1F34F051BE026
:1012300000240DE005FB084086B2D548815D0246DA
:10124000701C105C814201D0781C87B2601C84B293
:10125000A8F10100A042EDDC0A2F02DACB4805809C
:1012600004E00027681E85B2002DE1DC00BF17B93D
:101270000020C6490880404608EBD071C1F34F04F6
:1012800041E0C248058814E005FB0840C049085CFD
:10129000012807D1B9F1000F01D1ADF842404FF05C
:1012A00001090AE0B9F1010F01D14FF00209681CF0
:1012B00085B2B6484088A842E6DC00BFB9F1020F0B
:1012C0001FD1601C80B2ADF840004FF00009BDF89E
:1012D0004210BDF84020891A082912DA08EBD871AB
:1012E0004910BDF8422091420BD0BDF84220A749D9
:1012F0000988C91C01FB0821A54A515C012900D0BD
:1013000003E0601E84B2002CBBDC00BF04274FF05A
:101310000009BDF84200401C84B22FE09B480588BC
:1013200017E005FB08409A49085C01280AD1B9F189
:10133000000F04D109A820F81740781C87B24FF09D
:1013400001090AE0B9F1010F01D14FF00209681C4F
:1013500085B28E484088A842E3DC00BFB9F1020F95
:101360000AD1601E09A921F817004FF000090D2FBE
:1013700000D105E0781C87B2601C84B24445CDDB07
:1013800000BF0D2F03DA002011B0BDE8F08F032756
:101390004FF00009BDF84000401E84B22EE07B48AB
:1013A000058817E005FB08407949085C01280AD147
:1013B000B9F1000F04D109A820F81740781E87B2B0
:1013C0004FF001090AE0B9F1010F01D14FF0020914
:1013D000681C85B26D484088A842E3DC00BFB9F1C3
:1013E000020F07D1601C09A921F817004FF000096E
:1013F000781E87B207B903E0601E84B2002CCEDCF1
:1014000000BF002F01DD0020BEE757BB4FF00009F1
:10141000BDF82A00BDF82810401ABDF82610081A99
:1014200084B219E0594805880BE005FB084058498B
:10143000085C012803D1ADF82440814605E0681C12
:1014400085B252484088A842EFDC00BFB9F1010FD5
:1014500000D105E0601C84B2BDF82600A042E1DCAA
:1014600000BF002654E04FF00009484805881EE000
:1014700009A830F816400DE005FB08404449085C17
:10148000012805D101A820F816504FF0010907E006
:10149000601C84B209A9701C31F81000A042EBDA7C
:1014A00000BFB9F1010F00D105E0681C85B23748D3
:1014B0004088A842DCDC00BF4FF000093348458873
:1014C0001FE009A830F816400EE005FB084030493F
:1014D000085C012806D101A9701C21F810504FF0BA
:1014E000010907E0601C84B209A9701C31F81000E2
:1014F000A042EADA00BFB9F1010F00D105E0681E91
:1015000085B222480088A842DBDD00BFB01C86B24D
:101510000E2EA8DBBDF80C00ADF80800BDF80E00DB
:10152000ADF80A00BDF81C00ADF81800BDF81E00AB
:10153000ADF81A00002624E001A9701C31F8100053
:10154000B34606EBDB7C0090CCF347008C463CF8BE
:1015500016300DF1240C06F1010E3CF81E203CF86B
:10156000161003F0BFFA06EBDB71C1F34700FFF77B
:1015700055FD06EBD6714910064A00965054B01C32
:1015800086B20E2ED8DB0120FEE6000034020020D9
:10159000290A00203C02002010B54FF4A06001F0A1
:1015A00091FD10BD70472DE9F04104460D461646E9
:1015B0001F46DDF81880EA1991B2A21990B242468E
:1015C00000F07CFAEA1991B2A21B90B2424600F0F8
:1015D00075FAEA1B91B2A21990B2424600F06EFA77
:1015E000EA1B91B2A21B90B2424600F067FAAA1918
:1015F00091B2E21990B2424600F060FAAA1991B293
:10160000E21B90B2424600F059FAAA1B91B2E219CD
:1016100090B2424600F052FAAA1B91B2E21B90B27D
:10162000424600F04BFABDE8F08100002DE9F84F8A
:101630000546884691469A46AB460A20009000240B
:101640005DE004EB0410364911F810100A98007898
:10165000814251D104EB0410314901EB4000417843
:101660000A984078814247D108F10F0083B205F112
:101670000F0082B24146284601F05AFC002639E0AC
:10168000002732E00B9890B904EB0410244901EBD9
:101690004000801C805D80213941084018B14846D7
:1016A00001F06EFC1FE0504601F06AFC1BE004EB09
:1016B00004101B4901EB4000801C805D80213941F2
:1016C000084020B14A464146284600F0F7F9681C18
:1016D00085B2A5EB0B00102805D15D4608F101008D
:1016E0001FFA80F803E0781CC7B2082FCADB00BFDE
:1016F000701CC6B2202EC3DB00BF601CC4B20098B1
:1017000084429EDB07484088401E83B2054800881B
:10171000401E82B20021084601F00AFCBDE8F88FA5
:101720004DA60008120700202DE9F84F054688460F
:1017300091469A46AB461D200090002465E004EBDC
:10174000840000EB4410394911F810100A98007811
:10175000814257D104EB840000EB4410334901EB84
:10176000400041780A98407881424BD108F1170037
:1017700083B205F1170082B24146284601F0D8FB3A
:1017800000263DE0002736E00B98A0B904EB84006A
:1017900000EB4410254901EB4000801C805D802156
:1017A0003941084018B1484601F0EAFB21E05046B3
:1017B00001F0E6FB1DE004EB840000EB44101B4944
:1017C00001EB4000801C815D80203841014021B147
:1017D0004A464146284600F071F9681C85B2A5EBDF
:1017E0000B00182805D15D4608F101001FFA80F8AA
:1017F00003E0781CC7B2082FC6DB00BF701CC6B25E
:10180000482EBFDB00BF601CC4B20098844296DB48
:1018100007484088401E83B205480088401E82B2B7
:101820000021084601F084FBBDE8F88FA1A700085D
:10183000120700202DE9F84F0546884691469A4642
:10184000AB460820009000245DE004EB841036498C
:1018500011F810100A980078814251D104EB8410DD
:10186000314901EB400041780A984078814247D1E4
:1018700008F11F0083B205F11F0082B241462846DD
:1018800001F056FB002639E0002732E00B9890B9B2
:1018900004EB8410244901EB4000801C805D802112
:1018A0003941084018B1484601F06AFB1FE0504634
:1018B00001F066FB1BE004EB84101B4901EB4000C8
:1018C000801C805D80213941084020B14A46414654
:1018D000284600F0F3F8681C85B2A5EB0B00202821
:1018E00005D15D4608F101001FFA80F803E0781C7D
:1018F000C7B2082FCADB00BF701CC6B2802EC3DB84
:1019000000BF601CC4B2009884429EDB0748408838
:10191000401E83B205480088401E82B2002108465E
:1019200001F006FBBDE8F88F03B0000812070020A5
:101930002DE9F84F81468A461646984600243546DA
:101940007000C0F1030716E0ABB2A2B251464846A0
:10195000CDF80080FFF727FE002F04DA042000FBFB
:101960000470871D06E0601B042101FB007000F17C
:101970000A076D1E641CAC42E6DDBDE8F88F2DE958
:10198000F84305460E4617469846089C33463A46A5
:1019900031462846009400F017F843462A4631465F
:1019A0002846009400F010F843463A46414628463F
:1019B000009400F009F843463A4631463846009410
:1019C00000F002F8BDE8F8832DE9FF4F81B08146B1
:1019D0008A460398A0EB09050498A0EB0A06002D9F
:1019E00002DD4FF0010B06E015B94FF0000B02E0ED
:1019F0004FF0FF3B6D42002E02DD4FF0010806E084
:101A000016B94FF0000802E04FF0FF3876428DB96A
:101A1000701C87B2002408E004FB08A081B248468D
:101A20000E9A00F04BF8601C84B2BC42F4DB05B0A7
:101A3000BDE8F08F7EB9681C87B2002408E004FB83
:101A40000B9188B251460E9A00F038F8601C84B2AF
:101A5000BC42F4DBEBE7B54217DD681C87B200241B
:101A600010E004FB06F090FBF5F000FB08A080B24C
:101A700004FB0B91009088B20E9A009900F01EF8BA
:101A8000601C84B2BC42ECDB16E0701C87B2002400
:101A900010E004FB05F090FBF6F000FB059080B22F
:101AA000009004FB08A081B20E9A009800F006F89E
:101AB000601C84B2BC42ECDB00BFB8E770B50546E1
:101AC0000E4614463146284601F00EFA01480480BD
:101AD00070BD00000008006C2DE9F84F82468B466F
:101AE00016469946002435467000C71C1DE0A046E6
:101AF0000AE01FFA88F3A2B259465046CDF800908A
:101B0000FFF751FD08F10108A845F2DD002F04DAC6
:101B1000042000FB0470871D06E0601B042101FB0C
:101B2000007000F10A076D1E641CAC42DFDDBDE8E9
:101B3000F88F00002DE9F84F06460F4614461D4663
:101B4000DDF82890A01B401C1FFA80FAE81B401CFF
:101B50001FFA80FB0BFB0AF00090681E83B2601E28
:101B600082B23946304601F0E3F94FF0000804E054
:101B70000A48A0F8009008F1010800988045F7D3C2
:101B800007484088401E83B205480088401E82B244
:101B90000021084601F0CCF9BDE8F88F0008006C80
:101BA0001207002010B500244FF400710C4800F01B
:101BB00049FE4FF47A7007F039FB0CE04FF4FA73EA
:101BC000002208A108A000F011F800B110BD00F03B
:101BD0001BFA601CC4B20A2CF0DB00BFF6E7000061
:101BE000000C01404F4B000041540000FEB506467A
:101BF0000C4615461F46744800781E2190FBF1F2F2
:101C000001FB1200704908700846007818B94FF6B9
:101C1000FF7000F0ADFF6D48B0F800046FF30E00E8
:101C20006A49A1F80004324669A16B4803F083FEBB
:101C300014B90DB90120FEBD384607F0F7FA0020AF
:101C40006249B1F80014C1F30E01604A50541021EA
:101C5000CDE9002102905C480078010100234FF695
:101C6000E072184603F0D2F94FF478405B490880DF
:101C7000002C3ED0002D3CD021465448FEF720FBDE
:101C800008B1012000E0002040B929464F48FEF786
:101C900017FB08B1012000E00020A0B101201021B5
:101CA000CDE90041029048480078010100234FF43B
:101CB0007842F02003F0AAF943480078401C4249DA
:101CC00008700120B7E70120102145A2CDE90021CD
:101CD00002903D480078010100234FF47842F02043
:101CE00003F094F938480078401C37490870002008
:101CF000A1E79CB321463548FEF7E2FA08B101207E
:101D000000E00020A0B101201021CDE900410290A7
:101D10002D480078010100234FF47842F02003F0B1
:101D200075F929480078401C27490870012082E78E
:101D3000012010212AA2CDE900210290224800783A
:101D4000010100234FF47842F02003F05FF91E48B0
:101D50000078401C1C49087000206CE7FFE729460A
:101D60001A48FEF7ADFA08B1012000E00020A0B14A
:101D700001201021CDE900510290134800780101A3
:101D800000234FF47842F02003F040F90E48007829
:101D9000401C0D49087001204DE70120102110A2C0
:101DA000CDE90021029008480078010100234FF49A
:101DB0007842F02003F02AF903480078401C0249D9
:101DC0000870002037E700002800002010030020E2
:101DD00025730D0A00000000004800402A00002082
:101DE0006572726F7200000010B586B004460CB1C7
:101DF000012000E00020024606A101A803F0A4FF94
:101E00004FF4FA73002207A101A8FFF7EFFE06B016
:101E100010BD000041542B4349504D55583D256499
:101E2000000000004F4B000008B50121082002F01F
:101E3000DDFD4FF48070ADF8000010208DF8030038
:101E400003208DF802006946074800F065FC012177
:101E5000082002F0CBFD4FF40070ADF80000694699
:101E6000014800F059FC08BD000C014010B5FFF717
:101E7000DBFF00F0DBF84FF40071044800F0E2FCF7
:101E80004FF48071014800F0DBFC10BD000C0140F4
:101E900030B59FB004460D462B46224606A101A848
:101EA00003F052FF41F28833002208A101A8FFF796
:101EB0009DFE1FB030BD000041542B43574A415096
:101EC0003D222573222C2225732200004F4B000057
:101ED000F0B5B9B006460F4614461D46642120A849
:101EE000FEF7D7F916B1012E10D107E03B4614A238
:101EF00014A120A8009403F027FF08E03B4615A298
:101F000010A120A8009403F01FFF00E000BF00BF55
:101F1000052D06DA20AB2A460FA102A803F014FF14
:101F200004E020AA11A102A803F00EFF4FF47A6387
:101F300012A216A102A8FFF759FE39B0F0BD0000A9
:101F400054435000222573222C222573222C257302
:101F5000000000005544500041542B434950535455
:101F60004152543D25642C257300000041542B43FD
:101F7000495053544152543D25730000414C524541
:101F8000415920434F4E4E45435400004F4B0000F3
:101F900010B5044624B1012C0AD0022C18D10FE050
:101FA00040F6C4130BA20EA10EA0FFF71FFE10BD3A
:101FB00040F6C41307A20AA10DA0FFF717FEF6E72B
:101FC00040F6C41303A206A10CA0FFF70FFEEEE734
:101FD0000020ECE76E6F206368616E6765000000AB
:101FE0004F4B000041542B43574D4F44453D31006A
:101FF00041542B43574D4F44453D320041542B43F0
:10200000574D4F44453D330010B54FF4007106481D
:1020100000F016FC4FF4FA7007F008F94FF4007165
:10202000014800F00FFC10BD000C014000B585B068
:102030000121880402F0CAFC0121082002F0D6FC2C
:102040004FF48060ADF8100018208DF813000320C5
:102050008DF8120004A91A4800F05EFB4FF40060EE
:10206000ADF8100004208DF8130004A9144800F006
:1020700053FB4FF4E13000900020ADF80400ADF8C0
:102080000600ADF80800ADF80C000C20ADF80A0011
:1020900069460C4803F0DAFB012240F22551094859
:1020A00003F0AEFB012240F22441064803F0A8FBF6
:1020B00000F00AF80121034803F05FFB05B000BD02
:1020C000000C01400048004008B54FF4A06000F04B
:1020D000F9FF27208DF8000000208DF801008DF811
:1020E000020001208DF80300684600F0B3FF08BD30
:1020F00010B54FF4FA73002207A108A0FFF776FD90
:1021000008B9002010BD4FF4FA7308A202A108A07C
:10211000FFF76CFDF6E700004F4B000041542B43E6
:1021200049504D4F44453D31000000003E00000045
:1021300041542B43495053454E44000010B54FF4D1
:10214000004000F073F820B31248007878B980207E
:102150001149486180011149086101200D49087049
:1021600040030E49086180200B4908610DE00948D1
:102170000078012809D14003084948610220054937
:1021800008700748006806F0CBFD4FF4004000F0EF
:102190003FF810BD67010020001001400020014001
:1021A0000003002010B54FF4007000F03FF830B38A
:1021B0001348007880B9082012490860C00112490C
:1021C000086001200E49087080020F49086008204D
:1021D0000C49091F08600EE00948007801280AD15F
:1021E00080020949091D0860022005490870074856
:1021F000006806F095FD4FF4007000F009F810BD7E
:10220000CB00002014180140101C014004030020E2
:102210000149086070470000140401400249096840
:102220000143014A1160704710040140014600203B
:102230000022074B1B6803EA0102054B14331B689D
:102240000B4013B10AB1012000E0002070470000EC
:1022500000040140002123498279002A3AD00A462D
:10226000126803689A430B461A600A1D12680368D5
:102270009A430B1D1A60027911440A6803681A43D5
:102280000A60184A0832126803689A43154B0833EB
:102290001A601A1D126803689A43124B0C331A60B5
:1022A0004279102A0ED11A1F126803681A430D4B87
:1022B00008331A601A1D126803681A43094B0C335D
:1022C0001A600DE00749427911440A6803681A430D
:1022D0000A6005E0027911440A6803689A430A60BB
:1022E000704700000004014010B588B00020059040
:1022F00006900790164880791649085C1449497978
:10230000144A515C124A1279124B9A5C104BDB78DA
:10231000104CE35CCDE90132CDE903100C48807824
:102320002146085C00900A4840780B5C0848007819
:1023300000EB40000849421808A105A803F004FD7D
:1023400005AA0AA10B4803F0F6FA08B010BD000078
:102350003C0200207BC4000890C40008257325635C
:102360002E25632563256325632563004C25730DA6
:102370000A000000004800401CB5002419E001A834
:102380004FF0FF330622032100900A48006805F051
:1023900012FD04466CB901F069FF0120064908707E
:1023A00002F0C2F80548006818B10448006807F058
:1023B000DDF8E4E7080300204A0200206002002064
:1023C00010B588B000200590069007903C488079B1
:1023D0003C49085C3A4949793A4A515C384A127991
:1023E000384B9A5C364BDB78364CE35CCDE90132F6
:1023F000CDE90310324880782146085C00903048CF
:1024000040780B5C2E48007800EB40002E494218C3
:102410002EA105A803F098FC3048B0F800046FF333
:102420000E002E49A1F8000405AA2DA12E4803F0A4
:1024300082FA4FF4FA7006F0F9FE00BF2748B0F8B0
:102440000004C00B0028F9D000202449B1F8001482
:10245000C1F30E01214A50540120102123A24FF64E
:10246000FF73CDE90021029000224FF49C714E20B1
:1024700002F06AFE00201821184A4FF6FF73CDE9DA
:10248000002102904FF478424FF49A71B62002F086
:102490005BFE0120102119A2CDE9002102900F4915
:1024A000B1F80014B62202EB011188B24FF6FF73A7
:1024B0004FF478424FF49C7102F046FE08B010BD14
:1024C0003C0200207BC4000890C4000825732563EB
:1024D0002E256325632563256325630010030020F3
:1024E0004325730D0A000000004800405061726BE4
:1024F000696E672054696D653A0000005300000062
:1025000051B18200A2F1C042126842F00103820080
:10251000A2F1C042136009E08200A2F1C042126839
:10252000034B1A408300A3F1C0431A6070470000B8
:10253000FEFF0F00D0E901121143C2681143026986
:1025400011434269114382691143C2691143026A0E
:102550001143426A1143826A1143C26A1143026BFA
:10256000114302689200A2F1C042116081680829FB
:102570000BD101688900A1F1C041096841F0400216
:1025800001688900A1F1C0410A60416B0968426B92
:10259000526841EA0211426B926841EA0221426BA1
:1025A000928941EA0241426B128A41EA0251426B2E
:1025B000127D41EA0261426B926911430268521C2A
:1025C0009200A2F1C0421160C16AB1F5804F1BD1E7
:1025D000816B0968826B526841EA0211826B9268D2
:1025E00041EA0221826B128A41EA0251826B127D1A
:1025F00041EA0261826B9269114302689200A2F182
:10260000C042C2F8041107E06FF07042016889000F
:10261000A1F1C041C1F804217047000008B50121B3
:10262000082002F0E3F90320ADF8000018208DF82F
:10263000030003208DF802006946024800F06CF8A0
:1026400008BD0000000C014010B5FFF7E7FF00F0E7
:1026500001F810BD00B587B00121022002F0B6F9E3
:1026600044F61F60ADF804004720ADF800000020DC
:10267000ADF80600ADF802008DF80800694615486F
:1026800002F036FF6020ADF80C000120ADF80E001E
:102690000020ADF814004FF4C860ADF8120003A993
:1026A0000C4802F07BFE08210A4802F0C7FE4FF4F6
:1026B000AF60ADF8120003A9064802F0C9FE082178
:1026C000044802F003FF0121024802F05BFE07B05C
:1026D00000BD00000004004030B500228B071C0F35
:1026E0000F2303FA04F20B4B8C1053F8243093435E
:1026F000084C8D1044F8253023468C1053F82430B4
:102700008C07240F00FA04F42343024C8D1044F884
:10271000253030BD080001402DE9F041024600257A
:102720000026002000230024002791F803C00CF0AD
:102730000F0591F803C00CF0100CBCF1000F03D092
:1027400091F802C04CEA050591F800C0BCF1000FF9
:1027500031D0146800202BE04FF0010C0CFA00F38C
:10276000B1F800C00CEA03069E4220D183004FF06E
:102770000F0C0CFA03F7BC4305FA03FC4CEA040403
:1027800091F803C0BCF1280F06D14FF0010C0CFAF0
:1027900000FCC2F814C00AE091F803C0BCF1480F75
:1027A00005D14FF0010C0CFA00FCC2F810C0401C1F
:1027B0000828D1D31460B1F800C0BCF1FF0F34DD9C
:1027C000546800202EE000F1080C4FF0010808FAD0
:1027D0000CF3B1F800C00CEA03069E4221D183003D
:1027E0004FF00F0C0CFA03F7BC4305FA03FC4CEA5C
:1027F000040491F803C0BCF1280F05D100F1080CC6
:1028000008FA0CF8C2F8148091F803C0BCF1480F24
:1028100007D100F1080C4FF0010808FA0CF8C2F8D3
:102820001080401C0828CED35460BDE8F0810246D9
:10283000002093680B400BB1012000E0002070479E
:10284000416170470161704770B505460C4645F21D
:10285000555000F02BF8284600F01CF8204600F0F8
:102860001FF800F00FF800F001F870BD4CF6CC40F6
:1028700001490860704700000030004010B500F0CA
:1028800001F810BD4AF6AA2001490860704700000F
:1028900000300040014948607047000000300040AF
:1028A000014988607047000000300040014908601D
:1028B000704700000030004008E041F2883006F028
:1028C000B5FCFFF7DBFF02A005F0DCFDF5E700003B
:1028D000CEB9B9B70A00000010B50446FEF7A6FA53
:1028E00010BD000008B50121882002F07FF84FF4E8
:1028F000F040ADF8000028208DF803006946074835
:10290000FFF70AFF4FF4C040ADF8000028208DF813
:10291000030069460248FFF7FFFE08BD001C0140A6
:10292000000C014010B5044601F0FEFD10BD000092
:102930003EB54FF6FF7000F01BF90120202142A2A6
:102940004FF6FF73CDE9002102901F220F212020B6
:1029500002F0FAFB1F2034234FF4A07219460090B6
:102960000020FFF731F8012010213CA24FF6FF7341
:10297000CDE90021029000223A21702002F0E4FB10
:102980000120182139A24FF6FF73CDE900210290F2
:1029900000225021542002F0D7FB0120182137A239
:1029A0004FF6FF73CDE90021029000226B215420E5
:1029B00002F0CAFB0120182134A24FF6FF73CDE9C3
:1029C0000021029000228621542002F0BDFB01204C
:1029D000182132A24FF6FF73CDE9002102900022A8
:1029E000A121542002F0B0FB002426E0002000903A
:1029F00004EBC40000EB400000F1690304EBC400E9
:102A000000EB400000F14E01EC225420FEF7B7FF2E
:102A10000020182125A2CDE90021029004EBC4007A
:102A200000EB400000F150014FF6FF734FF4784285
:102A3000B42002F089FB601CC4B2042CD6DB01F088
:102A400015FC03F067FB3EBDD6C7C4DCB3B5CEBBF7
:102A5000B9DCC0EDCFB5CDB300000000CEB4C1AC41
:102A6000BDD3B7FECEF1C6F700000000BDF8C8EB3D
:102A7000B3B5C1BE3030C1BE00000000CABBB3F662
:102A8000B3B5C1BE3030C1BE00000000D6CDC1F428
:102A9000B3B5C1BE3030C1BE00000000CAA3D3E050
:102AA000B3B5CEBB3030B8F60000000030300000C7
:102AB00010B54FF400610448FFF7B9FE08B10020DB
:102AC00010BD0120FCE70000001C014010B54FF4D0
:102AD00080510448FFF7ABFE08B1002010BD012073
:102AE000FCE70000001C014010B54FF40051044801
:102AF000FFF79DFE08B1002010BD0120FCE700009B
:102B0000001C014010B54FF480410448FFF78FFED0
:102B100008B1002010BD0120FCE70000001C0140AE
:102B200010B54FF400510448FFF781FE08B10020B2
:102B300010BD0120FCE70000000C014010B54FF46F
:102B400080410448FFF773FE08B1002010BD01204A
:102B5000FCE70000000C014010B508210348FFF716
:102B600066FE08B1002010BD0120FCE70014014002
:102B700070B50446002500260E484088401E83B2EA
:102B80000C480088401E82B20021084600F0D0F9AF
:102B900000BF07E0002602E007480480761CA02E54
:102BA000FAD36D1CB5F5707FF4D3642006F03EFBBC
:102BB00070BD0000120700200008006C00B59FB037
:102BC0000121080201F0F2FE012140F2791001F02A
:102BD0000DFF8020ADF8780010208DF87B000320D9
:102BE0008DF87A001EA93A48FFF796FD2020ADF82F
:102BF000780010208DF87B0003208DF87A001EA944
:102C00003448FFF789FD4CF23370ADF87800182096
:102C10008DF87B0003208DF87A001EA92E48FFF75F
:102C20007BFD4FF68070ADF8780018208DF87B00A2
:102C300003208DF87A001EA92848FFF76DFD41F2A8
:102C40000100ADF8780018208DF87B0003208DF886
:102C50007A001EA92248FFF75FFD0120089000209E
:102C600009900F200A9000200B900C900D900E9070
:102C70000220019000200290052003900020049083
:102C800005900690079006200F900020109011905C
:102C90001020129000201390159014901690179009
:102CA0004FF480501890002019904FF480401A90F3
:102CB00000201B9008A81C9001A81D900FA8FFF7EA
:102CC00039FC01210620FFF71BFC1FB000BD0000EE
:102CD000000C0140001001400014014000180140A8
:102CE0000020014010B5FFF769FF00F0EDF8F1207A
:102CF00000F04CF9362000F043F9042000F040F9D0
:102D0000002000F03DF93C2000F03AF90F2000F0DF
:102D100037F98F2000F034F9F22000F037F918204D
:102D200000F02EF9A32000F02BF9122000F028F972
:102D3000022000F025F9B22000F022F9122000F064
:102D40001FF9FF2000F01CF9102000F019F90020F5
:102D500000F016F9F82000F019F9212000F010F920
:102D6000042000F00DF9F92000F010F9002000F027
:102D700007F9082000F004F9362000F007F90820D0
:102D800000F0FEF8B42000F001F9002000F0F8F89F
:102D9000B62000F0FBF8022000F0F2F8222000F04C
:102DA000EFF8C12000F0F2F8412000F0E9F8C5206A
:102DB00000F0ECF8002000F0E3F8182000F0E0F854
:102DC000E02000F0E3F80F2000F0DAF81F2000F018
:102DD000D7F81C2000F0D4F80C2000F0D1F80F2018
:102DE00000F0CEF8082000F0CBF8482000F0C8F83A
:102DF000982000F0C5F8372000F0C2F80A2000F053
:102E0000BFF8132000F0BCF8042000F0B9F811203E
:102E100000F0B6F80D2000F0B3F8002000F0B0F894
:102E2000E12000F0B3F80F2000F0AAF8322000F003
:102E3000A7F82E2000F0A4F80B2000F0A1F80D2038
:102E400000F09EF8052000F09BF8472000F098F86D
:102E5000752000F095F8372000F092F8062000F079
:102E60008FF8102000F08CF8032000F089F824205F
:102E700000F086F8202000F083F8002000F080F8B1
:102E80003A2000F083F8552000F07AF8112000F085
:102E90007DF8362000F07AF8C82000F071F878202C
:102EA00006F0C4F9292000F071F800F029F801209B
:102EB0000349086003480088FFF75AFE10BD000070
:102EC0009C8121422C00002010B52020054948613A
:102ED000642006F0ABF9202002490861322006F098
:102EE000A5F910BD0010014030B504460D46681C20
:102EF00083B2601C82B22946204600F019F830BD2A
:102F000000B52A20094948812B2088812C2008817E
:102F1000002088714FF4A07008804FF4F070488052
:102F2000C821362000F040F800BD00001207002044
:102F300030B504460D461149488900F027F82012A3
:102F400000F01EF8E0B200F01BF8101200F018F8C4
:102F5000D0B200F015F80949888900F017F8281256
:102F600000F00EF8E8B200F00BF8181200F008F8C4
:102F7000D8B200F005F800F00FF830BD12070020BD
:102F800001490880704700000008006C0149088072
:102F900070470000FE07006C00B502490889FFF782
:102FA000F5FF00BD12070020024A1080921C11801C
:102FB00070470000FE07006C0EB54FF6FF704FF42F
:102FC000BE7340F23F12BE2100900020FEF7B2FD1A
:102FD0001F20C823D222194600906E20FEF7F4FC71
:102FE0001F20CE23D222194600906E20FEF7ECFC63
:102FF0000120182111A24FF6FF73CDE900210290A4
:103000000022DC217C2002F09FF81F204FF49773F0
:1030100040F20112F82100904920FEF78BFD0120BB
:10302000182108A21F23CDE900210290DA0240F204
:1030300005117C2002F088F80EBD0000B3B5C5C6AE
:10304000BAC50000CAB6B1F0D6D0000000BFFEE796
:103050007047000070B5002100230F22C47804B32C
:10306000154C246804F4E064C4F5E064210AC1F15D
:103070000403CA40447804FA03F1847814402143DD
:1030800009010E4C0678A155047804F01F050124AF
:10309000AC4005786D11AD0005F1E025C5F80041A3
:1030A00009E0047804F01F050124AC40044D0678C3
:1030B000761145F8264070BD0CED00E000E400E01C
:1030C00080E100E002490143024A116070470000BC
:1030D0000000FA050CED00E03EB504460025FFF7C0
:1030E0006BFF64BB00BF202037490860C000374930
:1030F0000860091F086020203349091F0860C000CC
:1031000032490860091F086000BF0020FDF76EFC0F
:1031100000BF20202C490860C0002C490860091F0E
:10312000086020202849091F0860C000274908605E
:10313000091F086000BF0020FDF732FB27E000BF39
:103140004FF480702249486180012249486108613A
:1031500080111F49086180011E494861086100BF54
:103160000120FDF743FC00BF4FF48070184948610F
:103170008001184948610861801115490861800182
:1031800014494861086100BF0120FDF709FBFEF703
:1031900005F805466DB9002018210FA21F23CDE9BF
:1031A00000210290DA0240F20511702001F0CCFFFC
:1031B00008E00C481F234FF6FF72FA2100904B20C5
:1031C00001F078FD28463EBD14180140141C014052
:1031D0000010014000200140CAB6B1F0CAA7B0DC1F
:1031E000000000003C02002008B50121D02001F0C1
:1031F000FDFB10208DF8030003208DF802004FF432
:103200000050ADF8000069461B48FFF785FA08201A
:10321000ADF8000069461948FFF77EFA2020ADF8A6
:10322000000069461548FFF777FA4FF48070ADF853
:10323000000069461248FFF76FFA4FF48060ADF85E
:10324000000069460E48FFF767FAFF20ADF800005E
:1032500004208DF8030003208DF802006946084819
:10326000FFF75AFA4FF4005003494861C01004496F
:103270001031086008BD0000001001400018014036
:10328000001C014010B510210B48FFF7D9FA00F0DF
:103290007FF940210848FFF7D3FA00F079F91021AF
:1032A0000548FFF7CFFA00F073F910210248FFF745
:1032B000C7FA00F06DF910BD0018014008B50121F2
:1032C000402001F093FB1020ADF8000003208DF8A2
:1032D000020010208DF8030069460948FFF71CFA28
:1032E0000121402001F082FB4020ADF800001020B9
:1032F0008DF8030069460248FFF70EFA08BD00008A
:103300000018014010B510210B48FFF799FA00F0A2
:103310003FF940210848FFF795FA00F039F91021EC
:103320000548FFF78FFA00F033F910210248FFF744
:1033300087FA00F02DF910BD0018014070B5054660
:103340000C46164600F08EF808B9002070BD4220E9
:1033500000F05CF800F0D6F818B900F0B7F80020DB
:10336000F4E7304600F052F800F0CCF800F0AEF888
:1033700000F078F808B90020E8E7432000F046F8AC
:1033800000F0C0F818B900F0A1F80020DEE70CE06A
:1033900000F012F82870012C02D1FFF7B3FF01E012
:1033A000FFF770FF6D1C601E84B2002CF0D100F09E
:1033B0008DF80120CAE7000070B5082500244021DF
:1033C0001148FFF73FFA14E06006040E10210E4882
:1033D000FFF736FA00F0DCF810210B48FFF732FA5D
:1033E00000F0D6F840210848FFF721FA08B144F070
:1033F0000104281EA5F10101CDB2E5D1102102483A
:10340000FFF71EFA204670BD0018014070B5044653
:1034100008251BE010211248FFF712FA00F0B8F857
:1034200004F0800020B140210D48FFF70BFA03E0C3
:1034300040210B48FFF704FA6006040E00F0A8F8DC
:1034400010210748FFF7FEF900F0A2F8281EA5F1A9
:103450000101CDB2DED110210148FFF7F1F970BDB5
:103460000018014010B51848006820F07060164937
:1034700008600846006840F000600860402112487B
:10348000FFF7E0F910211048FFF7DCF900F080F8B1
:1034900040210D48FFF7CBF908B9002010BD4021AD
:1034A0000948FFF7CDF900F073F840210648FFF70F
:1034B000BEF908B10020F1E740210348FFF7C0F949
:1034C00000F066F80120E9E70018014010B510216E
:1034D0000B48FFF7B5F900F05BF840210848FFF70B
:1034E000AFF900F055F810210548FFF7ABF900F0EF
:1034F0004FF840210248FFF7A5F900F049F810BD48
:103500000018014010B510211048FFF799F900F09C
:103510003FF840210D48FFF795F900F039F81021E8
:103520000A48FFF78FF900F033F840210748FFF70A
:103530007EF928B110210548FFF782F9002010BD5F
:1035400010210248FFF77CF90120F8E7001801403C
:1035500070B504460D46FFF785FF08B9002070BD21
:103560004220FFF753FFFFF7CDFF18B9FFF7AEFF7B
:103570000020F4E7E0B2FFF749FFFFF7C3FF28465A
:10358000FFF744FFFFF7BEFFFFF7A0FF0120E6E7CC
:103590004FF4C87001E0411E88B20028FBD170478B
:1035A0001FB50121812001F021FA4FF40070ADF820
:1035B0000C0004208DF80F0003208DF80E0003A9E5
:1035C0001648FFF7A9F809210520FFF785F84FF401
:1035D0000070019000208DF808000C208DF8090083
:1035E00001208DF80A0001A8FEF734FE4FF40070A8
:1035F000FEF714FE4FF4C060FFF764FD17208DF84E
:10360000000000208DF8010003208DF80200012049
:103610008DF803006846FFF71DFD1FBD001C01402B
:1036200070B50646301D092821D2DFE800F01D1ACA
:103630001714110E0B0805004824062518E038243D
:10364000062515E02824062512E0182406250FE09B
:10365000082406250CE008240E2509E018240E2570
:1036600006E028240E2503E038240E2500E000BFE4
:1036700000BF21469B20FFF76BFF2946AB20FFF7D9
:1036800067FF70BD10B5044614F1040F0DDB042C68
:103690000BDC201D0007010EA720FFF759FF201D9E
:1036A0000007010EA820FFF753FF10BD10B5044618
:1036B00014F1040F0ADB042C08DCC4F104003022EE
:1036C000A2EB8000C1B29C20FFF742FF10BD10B5F5
:1036D000FFF7F4FDFFF788FDFFF762FF10BD000064
:1036E00038B500240020009080211220FFF730FF21
:1036F00008B9002038BD0B2201216846FFF71EFEE5
:1037000008B90020F6E79DF80000212814D1002414
:103710000DE00B4A02EB44025178094A12F81400FA
:10372000FFF716FF08B90020E4E7601C84B20548E3
:1037300000788442EDDB01E00020DBE70120D9E7DF
:1037400030000020CA00002010B50446062C79D2B3
:10375000DFE804F003142D465F79FF211320FFF703
:10376000F7FE65210E20FFF7F3FE00212D20FFF765
:10377000EFFE00212E20FFF7EBFE6EE0FD2113206F
:10378000FFF7E6FE5A210120FFF7E2FE5C2102204E
:10379000FFF7DEFE65210E20FFF7DAFE00212D2067
:1037A000FFF7D6FE00212E20FFF7D2FE55E0FD21C7
:1037B0001320FFF7CDFE58210120FFF7C9FE60213D
:1037C0000220FFF7C5FE65210E20FFF7C1FE002194
:1037D0002D20FFF7BDFE00212E20FFF7B9FE3CE0B3
:1037E000FD211320FFF7B4FE84210120FFF7B0FE76
:1037F0004C210220FFF7ACFE65210E20FFF7A8FE4A
:1038000000212D20FFF7A4FE00212E20FFF7A0FEAF
:1038100023E0FD211320FFF79BFE96210120FFF7F7
:1038200097FE40210220FFF793FE65210E20FFF74F
:103830008FFE00212D20FFF78BFE00212E20FFF7A9
:1038400087FE0AE008E0FF211320FFF781FEE52153
:103850000E20FFF77DFE00E000BF00BF10BD10B5D9
:103860000446072C58D2DFE804F004111E2B38451B
:1038700052000621A620FFF76BFE80216020FFF793
:1038800067FE80216120FFF763FE46E02621A62027
:10389000FFF75EFE80216020FFF75AFE8021612045
:1038A000FFF756FE39E01E21A620FFF751FEA021AA
:1038B0006020FFF74DFE40216120FFF749FE2CE01C
:1038C0001E21A620FFF744FE40216020FFF740FEA6
:1038D000A0216120FFF73CFE1FE01E21A620FFF77C
:1038E00037FE80216020FFF733FEC0216120FFF703
:1038F0002FFE12E01E21A620FFF72AFE60210846B7
:10390000FFF726FE60216120FFF722FE05E0462139
:10391000A620FFF71DFE00E000BF00BF10BD2DE98F
:10392000F84306460F4614461D46DDF82080B8F1E0
:10393000000F04D146211220FFF70AFE03E0062102
:103940001220FFF705FE172201216846FFF7F6FC5B
:103950009DF8000000EBA60000F0FF094946172083
:10396000FFF7F6FDC4F387011820FFF7F1FD1922D8
:1039700001216846FFF7E2FC9DF8000000EB6700BC
:1039800000F0FF0949461920FFF7E2FDC5F34701A2
:103990001A20FFF7DDFD322201216846FFF7CEFC39
:1039A00004F003009DF80010084305F0010140EA0F
:1039B000810006F0030140EA011007F0010140EA2E
:1039C000811949463220FFF7C3FDC4F3870129203E
:1039D000FFF7BEFDC5F347012C20FFF7B9FD2A22F2
:1039E00001216846FFF7AAFC04F003009DF80010CF
:1039F000084305F0010140EA810949462A20FFF702
:103A0000A7FDBDE8F88370B50646301D092821D210
:103A1000DFE800F01D1A1714110E0B0805004824EA
:103A2000062518E03824062515E02824062512E08E
:103A3000182406250FE0082406250CE008240E258E
:103A400009E018240E2506E028240E2503E038247A
:103A50000E2500E000BF00BF21469B2000F0A4FA25
:103A60002946AB2000F0A0FA70BD10B5044614F151
:103A7000040F0DDB042C0BDC201D0007010EA7201A
:103A800000F092FA201D0007010EA82000F08CFA29
:103A900010BD10B5044614F1040F0ADB042C08DC39
:103AA000C4F104003022A2EB8000C1B29C2000F0DF
:103AB0007BFA10BD08B501214FF4887000F096FF25
:103AC00010208DF8030003208DF802004020ADF88F
:103AD000000069461B48FEF71FFE8020ADF800007D
:103AE00069461848FEF718FE4FF48070ADF80000E4
:103AF00069461448FEF710FE4FF48040ADF8000010
:103B000069461148FEF708FE4FF40050ADF800007A
:103B100069460D48FEF700FE4FF47F70ADF80000D7
:103B200004208DF8030003208DF802006946064842
:103B3000FEF7F2FD402003494861C00102490861D7
:103B400008BD0000001001400020014010B500F049
:103B5000E1F8FFF7AFFF00F0AFFA10BD38B5002471
:103B6000002000908021122000F01EFA08B90020E9
:103B700038BD0B220121684600F00CF908B900207D
:103B8000F6E79DF80000212814D100240DE00B4A2F
:103B900002EB44025178094A12F8140000F004FACA
:103BA00008B90020E4E7601C84B20548007884422C
:103BB000EDDB01E00020DBE70120D9E7CC000020AD
:103BC0006601002010B50446062C79D2DFE804F027
:103BD00003142D465F79FF21132000F0E5F96521DC
:103BE0000E2000F0E1F900212D2000F0DDF9002188
:103BF0002E2000F0D9F96EE0FD21132000F0D4F959
:103C00005A21012000F0D0F95C21022000F0CCF90B
:103C100065210E2000F0C8F900212D2000F0C4F924
:103C200000212E2000F0C0F955E0FD21132000F006
:103C3000BBF95821012000F0B7F96021022000F003
:103C4000B3F965210E2000F0AFF900212D2000F01E
:103C5000ABF900212E2000F0A7F93CE0FD21132054
:103C600000F0A2F98421012000F09EF94C210220ED
:103C700000F09AF965210E2000F096F900212D2020
:103C800000F092F900212E2000F08EF923E0FD21B2
:103C9000132000F089F99621012000F085F94021D8
:103CA000022000F081F965210E2000F07DF900214D
:103CB0002D2000F079F900212E2000F075F90AE09E
:103CC00008E0FF21132000F06FF9E5210E2000F03D
:103CD0006BF900E000BF00BF10BD000010B58021EF
:103CE0000B48FEF7ADFD00F07FF940210848FEF7D4
:103CF000A7FD00F079F980210548FEF7A3FD00F04B
:103D000073F980210248FEF79BFD00F06DF910BDAC
:103D10000014014008B50121202000F067FE80203A
:103D2000ADF8000003208DF8020010208DF803008C
:103D300069460948FEF7F0FC0121202000F056FEFC
:103D40004020ADF8000010208DF8030069460248BD
:103D5000FEF7E2FC08BD00000014014010B5802110
:103D60000B48FEF76DFD00F03FF940210848FEF7D3
:103D700069FD00F039F980210548FEF763FD00F088
:103D800033F980210248FEF75BFD00F02DF910BDEC
:103D90000014014070B505460C46164600F08EF83A
:103DA00008B9002070BD422000F05CF800F0D6F8A1
:103DB00018B900F0B7F80020F4E7304600F052F8E8
:103DC00000F0CCF800F0AEF800F078F808B9002068
:103DD000E8E7432000F046F800F0C0F818B900F01A
:103DE000A1F80020DEE70CE000F012F82870012CAA
:103DF00002D1FFF7B3FF01E0FFF770FF6D1C601EFB
:103E000084B2002CF0D100F08DF80120CAE7000048
:103E100070B50825002440211148FEF713FD14E079
:103E20006006040E80210E48FEF70AFD00F0DCF863
:103E300080210B48FEF706FD00F0D6F84021084827
:103E4000FEF7F5FC08B144F00104281EA5F10101BC
:103E5000CDB2E5D180210248FEF7F2FC204670BDCC
:103E60000014014070B5044608251BE0802112486B
:103E7000FEF7E6FC00F0B8F804F0800020B1402125
:103E80000D48FEF7DFFC03E040210B48FEF7D8FCAD
:103E90006006040E00F0A8F880210748FEF7D2FC67
:103EA00000F0A2F8281EA5F10101CDB2DED18021DB
:103EB0000148FEF7C5FC70BD0014014010B518485C
:103EC000006820F07060164908600846006840F0FD
:103ED0000060086040211248FEF7B4FC80211048C1
:103EE000FEF7B0FC00F080F840210D48FEF79FFC83
:103EF00008B9002010BD40210948FEF7A1FC00F0E0
:103F000073F840210648FEF792FC08B10020F1E763
:103F100040210348FEF794FC00F066F80120E9E731
:103F20000014014010B580210B48FEF789FC00F019
:103F30005BF840210848FEF783FC00F055F880212B
:103F40000548FEF77FFC00F04FF840210248FEF7DD
:103F500079FC00F049F810BD0014014010B5802133
:103F60001048FEF76DFC00F03FF840210D48FEF7C9
:103F700069FC00F039F880210A48FEF763FC00F084
:103F800033F840210748FEF752FC28B1802105484C
:103F9000FEF756FC002010BD80210248FEF750FCC1
:103FA0000120F8E70014014070B504460D46FFF704
:103FB00085FF08B9002070BD4220FFF753FFFFF7CF
:103FC000CDFF18B9FFF7AEFF0020F4E7E0B2FFF72E
:103FD00049FFFFF7C3FF2846FFF744FFFFF7BEFF87
:103FE000FFF7A0FF0120E6E74FF4C87001E0411E93
:103FF00088B20028FBD1704710B50446072C58D270
:10400000DFE804F004111E2B384552000621A620DB
:10401000FFF7CAFF80216020FFF7C6FF80216120E3
:10402000FFF7C2FF46E02621A620FFF7BDFF802153
:104030006020FFF7B9FF80216120FFF7B5FF39E06D
:104040001E21A620FFF7B0FFA0216020FFF7ACFFE4
:1040500040216120FFF7A8FF2CE01E21A620FFF7DA
:10406000A3FF40216020FFF79FFFA0216120FFF701
:104070009BFF1FE01E21A620FFF796FF80216020F6
:10408000FFF792FFC0216120FFF78EFF12E01E2193
:10409000A620FFF789FF60210846FFF785FF602112
:1040A0006120FFF781FF05E04621A620FFF77CFF96
:1040B00000E000BF00BF10BD1FB5012140F201109C
:1040C00000F094FC4FF40040ADF80C0004208DF893
:1040D0000F0003208DF80E0003A91748FEF71CFB04
:1040E0000F210620FEF7F8FA4FF40040019000205F
:1040F0008DF808000C208DF8090001208DF80A00C9
:1041000001A8FEF7A7F84FF40040FEF787F84FF438
:10411000C060FEF7D7FF28208DF8000000208DF842
:10412000010003208DF8020001208DF8030068468D
:10413000FEF790FF1FBD0000002001402DE9F8436D
:1041400006460F4614461D46DDF82080B8F1000FE4
:1041500004D146211220FFF727FF03E00621122099
:10416000FFF722FF172201216846FFF713FE9DF893
:10417000000000EBA60000F0FF0949461720FFF7FA
:1041800013FFC4F387011820FFF70EFF1922012146
:104190006846FFF7FFFD9DF8000000EB670000F0A8
:1041A000FF0949461920FFF7FFFEC5F347011A2012
:1041B000FFF7FAFE322201216846FFF7EBFD04F01B
:1041C00003009DF80010084305F0010140EA81005A
:1041D00006F0030140EA011007F0010140EA8119ED
:1041E00049463220FFF7E0FEC4F387012920FFF79C
:1041F000DBFEC5F347012C20FFF7D6FE2A22012162
:104200006846FFF7C7FD04F003009DF8001008435F
:1042100005F0010140EA810949462A20FFF7C4FE62
:10422000BDE8F88310B50446206878B1206880475F
:1042300060B120796179884203DA2079401C2071CD
:1042400010BDA07A78B90120A072F9E7207918B1E1
:104250002079401E2071F3E7A07A012801D10020C7
:10426000A0720020E08000BFEAE700003EB52824ED
:104270004FF6FF704FF4BE7340F23F12BE21009024
:104280000020FDF757FC1F20E623D222CC2100900E
:104290006E20FDF774FB1F2004F5AA7304F1BE0124
:1042A00040F23F1200900020FDF769FB0120182129
:1042B00094A24FF6FF73CDE9002102900022CD2198
:1042C000702000F041FF1F2004F5AA7304F1BE0125
:1042D000A02200901046FDF777FB1F2004F5AA737B
:1042E00004F1BE011E2200901046FDF76DFB1F2059
:1042F00004F5AA7304F1BE01BE2200901046FDF73A
:1043000063FB1F2004F2091304F2091140F23F126B
:1043100000900020FDF758FB7DA004F1CA014FF684
:10432000FF731F220090032000F0A0FE79A004F18B
:10433000CA014FF6FF731F220090A32000F096FEE3
:1043400075A004F215114FF6FF731F220090032091
:1043500000F08CFE71A004F215114FF6FF731F22BE
:104360000090A32000F082FE4FF4FC6004F1FF03F4
:1043700004F1C801552200903220FDF7DBFB4FF419
:10438000784004F1FF0304F1C8018C2200906920F9
:10439000FDF7D0FB4FF4FC6004F1FF0304F1C8010A
:1043A000F5220090D220FDF7C5FB4FF4784004F1D0
:1043B000FF0304F1C8015A1D009040F20910FDF7F7
:1043C000B9FB4FF4784004F5A57304F2131155229C
:1043D00000903220FDF7AEFB4FF4784004F5A57352
:1043E00004F213118C2200906920FDF7A3FB4FF417
:1043F000784004F5A57304F21311F5220090D22041
:10440000FDF798FB4FF4784004F5A57304F21311FF
:104410004FF49672009040F20910FDF78BFB0120DB
:1044200018213FA2CDE90021029004F1D7014FF4F9
:10443000FC630022332000F087FE0120182139A2FE
:10444000CDE90021029004F1D7014FF4FC63002272
:104450006A2000F079FE0120182131A2CDE9002167
:10446000029004F1D7014FF4FC630022D32000F046
:104470006BFE012018212BA2CDE90021029004F14E
:10448000D7014FF4FC6300224FF4857000F05CFE0E
:104490000120182122A2CDE90021029004F591719A
:1044A0004FF4FC630022332000F04EFE012018215F
:1044B0001CA2CDE90021029004F591714FF4FC6338
:1044C00000226A2000F040FE0120182114A2CDE94C
:1044D0000021029004F591714FF4FC630022D32077
:1044E00000F032FE012018210EA2CDE90021029039
:1044F00004F591714FF4FC6300224FF4857000F0D5
:1045000023FE3EBDB3B5CEBBD0C5CFA20000000098
:104510004100000042000000430000004400000091
:1045200030310000303200002DE9FF410025002627
:10453000002700200390D148807A012809D1681C07
:10454000C5B246F00106CE48007820F00100CC4903
:104550000870CC48807A012809D1681CC5B247F0A0
:104560000107C948007820F00100C74908700024FD
:1045700011E00120A040C2490978084008B1681C38
:10458000C5B20120A040C0490978084008B1681CA4
:10459000C5B2601CC4B2012CEBDBBC480088A84249
:1045A00036DABA480078281AC5B2002412E0012091
:1045B000A040B3490978084040B10120A040B0496B
:1045C00009788143AE480170681EC5B205B903E0A1
:1045D000601CC4B2012CEADB00BFBDB1002412E0B4
:1045E0000120A040A8490978084040B10120A0401E
:1045F000A54909788143A4480170681EC5B205B970
:1046000003E0601CC4B2012CEADB00BF9F480578C0
:10461000022D03D101209E49087002E000209C4930
:1046200008709C480078B04207D19B480078B84297
:1046300003D19A48007801287ED13B46324698A1A2
:104640009A4801F078F99348067000243AE0012076
:10465000A0403040012804D14FF4784094490880AC
:1046600003E04FF4FC60924908809148008804EB15
:10467000C401C1EB841101F1550204EBC401C1EB8B
:104680008411009001F1320040F22713F021FDF770
:1046900051FA621C87A103A801F056FB01201821E2
:1046A00003AACDE90021029004EBC401C1EB8411FF
:1046B00001F133004FF4FC630022FF2100F044FDC0
:1046C000601CC4B2012CC2DB7348077000243CE0BC
:1046D0000120A0403840012804D14FF478407449AB
:1046E000088003E04FF4FC6071490880704800883E
:1046F00004EBC401C1EB841101F1F50204EBC40128
:10470000C1EB8411009001F1D20040F22713F02197
:10471000FDF710FA621C67A103A801F015FB012048
:10472000182103AACDE90021029004EBC401C1EBDA
:10473000841101F1D30000E009E04FF4FC63002292
:10474000FF2100F001FD601CC4B2012CC0DB4C480D
:10475000007828B15848007849490978884203D13F
:104760004E480078012837D1002433E00120A040D2
:1047700043490978084001282AD14FF6E07004EB3C
:10478000C401C1EB841101F1550204EBC401C1EB7A
:104790008411009001F1320040F22713F021FDF75F
:1047A000C9F9621C43A103A801F0CEFA0120182127
:1047B00003AACDE90021029004EBC401C1EB8411EE
:1047C00001F133004FF4FC630022FF2100F0BCFC38
:1047D000601CC4B2012CC9DB2B48007828B13748D3
:1047E000007829490978884203D12C4800780128AB
:1047F00037D1002433E00120A04023490978084044
:1048000001282AD14FF6E07004EBC401C1EB8411FA
:1048100001F1F50204EBC401C1EB8411009001F138
:10482000D20040F22713F021FDF784F9621C21A188
:1048300003A801F089FA0120182103AACDE900217B
:10484000029004EBC401C1EB841101F1D3004FF4D9
:10485000FC630022FF2100F077FC601CC4B2012C35
:10486000C9DB00200D49087005480078124908701E
:104870000548007811490870BDE8FF81984500207F
:1048800044020020A8450020450200205C020020D0
:104890004B02002048020020490200204A0200206A
:1048A000474125642C4225642C0D0A000048004035
:1048B0002A00002030256400460200204702002024
:1048C0001FB50020039000242BE00120A0402F49B9
:1048D0000978084018BB0120A0402D4909780840FC
:1048E000E8B9012000FA04F22AA103A801F02CFA89
:1048F0000120A04026490978084325490870002076
:10490000182103AA4FF6FF73CDE9002102904FF45E
:1049100078424FF4A071942000F016FC1FBD601C7B
:10492000C4B2012CD1DB00242BE00120A0401B49A4
:104930000978084018BB0120A040194909780840AF
:10494000E8B9012000FA04F216A103A801F0FCF96D
:104950000120A0401249097808431149087000203D
:10496000182103AA4FF6FF73CDE9002102904FF4FE
:1049700078424FF4A071942000F0E6FBCEE7601C73
:10498000C4B2012CD1DB00BFC8E700004802002000
:10499000440200204130256400000000490200204C
:1049A00045020020423025640000000029B1064A7B
:1049B00052690243044B5A6104E0034A526982433C
:1049C000014B5A61704700000010024029B1064AAD
:1049D000D2690243044BDA6104E0034AD26982439C
:1049E000014BDA61704700000010024029B1064A0D
:1049F00092690243044B9A6104E0034A926982433C
:104A0000014B9A61704700000010024030B5002150
:104A10000022002400232D4D6D6805F00C0121B10A
:104A2000042905D0082923D105E0294D056022E09D
:104A3000274D05601FE0254D6D6805F47012234D6C
:104A40006D6805F48034022505EB92421CB9214DB6
:104A5000554305600BE01D4D6D6805F400351DB133
:104A60001C4D5543056002E0194D5543056002E0B9
:104A7000174D056000BF00BF144D6D6805F0F001D3
:104A80000909154D6B5C0568DD4045600F4D6D688B
:104A900005F4E061090A104D6B5C4568DD408560F6
:104AA0000A4D6D6805F46051C90A0B4D6B5C456891
:104AB000DD40C560054D6D6805F44041890B074D2B
:104AC0006B5CC568B5FBF3F5056130BD00100240B5
:104AD00000127A0000093D0014000020240000208C
:104AE000704700002DE9F04FADF66C1D0E46904664
:104AF0001F46DDF890B90020CDF868094FF4166123
:104B00006846FBF7C6FB2E48C0882D498988401AA5
:104B100080B2CDF86809A8EB060080B2CDF8600934
:104B2000ABEB070080B2CDF86409002421E000253A
:104B30001BE0DDF860096843172190FBF1F0811953
:104B4000DDF864096043312290FBF2F0C219DDF810
:104B5000680902FB00101B49085C04EB440105EBEB
:104B6000C1012DF81100681C85B2182DE1DB601C15
:104B700084B2322CDBDB00241CE04FF0000900255E
:104B800011E0C5F1070000F0FF0A05EBC4003DF895
:104B90001000012805D100FA0AF040EA090000F0EF
:104BA000FF09681C85B2082DEBDB074800F804906C
:104BB000601C84B2962CE0DB0DF66C1DBDE8F08F16
:104BC00034020020290A0020C144002010B500F062
:104BD00001F810BD0CB5002001900090334800682A
:104BE00040F480303149086000BF3048006800F46C
:104BF000003000900198401C0190009818B901986D
:104C0000B0F5A06FF1D12948006800F4003010B170
:104C10000120009001E0002000900098012843D17D
:104C20002348006840F010002149086008460068E9
:104C300020F0030008600846006840F002000860A9
:104C40001A48406819494860084640684860084664
:104C5000406840F4806048600846406820F47C105A
:104C600048600846406840F4E8104860084600681C
:104C700040F08070086000BF0C48006800F00070D1
:104C80000028F9D00948406820F00300074948602F
:104C90000846406840F00200486000BF0348406892
:104CA00000F00C000828F9D10CBD000000100240F3
:104CB000002002402DE9FF4F83B005460F4699467C
:104CC00007F1340C1FFA8CF305F1B60C1FFA8CF2C5
:104CD000A7F1020C1FFA8CF1A5F1020C1FFA8CF05F
:104CE000CDF80090FCF726FF07F1310083B205F103
:104CF000170082B239462846FEF71AF9002628E046
:104D000010980078C0EB001000EB800006EB40002C
:104D1000424911F800B0002417E0C4F1070000F088
:104D2000FF08012000FA08F000EA0B00012101FA57
:104D300008F1884202D10598029001E0CDF8089070
:104D4000374902980880601C84B2082CE5DB701C8F
:104D500086B2962ED4DB33484088401E83B2314859
:104D60000088401E82B200210846FEF7E1F805F1F6
:104D70001A0085B24FF0010A4AE007F1310083B210
:104D800005F1170082B239462846FEF7D1F8002611
:104D900029E0109810F80A00C0EB001000EB80002A
:104DA00006EB4000204911F800B0002417E0C4F1E0
:104DB000070000F0FF08012000FA08F000EA0B00ED
:104DC000012101FA08F1884202D10598029001E020
:104DD000CDF80890124902980880601C84B2082C13
:104DE000E5DB701C86B2962ED3DB0E484088401E51
:104DF00083B20C480088401E82B200210846FEF7AC
:104E000097F805F11A0085B20AF1010000F0FF0AD7
:104E1000BAF1070FB1DB07B0BDE8F08F6BB6000841
:104E20000008006C120700202DB800082DE9FF4F84
:104E300083B082468B46119E182E76D1109830385A
:104E4000092804DD1098373800F0FF0803E01098B7
:104E5000303800F0FF080BF1170083B20AF10F00A1
:104E600082B259465046FEF763F8129830BB0024D0
:104E700021E008EB4800604901EB0010075D0025C8
:104E800015E0C5F1070000F0FF09012000FA09F064
:104E90003840012101FA09F1884203D157490598A8
:104EA000088002E0554906980880681CC5B2082DA4
:104EB000E7DB601CC4B2302CDBDB8DE0002430E08B
:104EC00008EB48004C4901EB0010075D002524E089
:104ED000C5F1070000F0FF09012000FA09F0384091
:104EE000012101FA09F1884215D104EBD4720BEBD0
:104EF000620291B2029404EBD4725210A4EB42020B
:104F00000AEB05034FF0080C0CFB023290B201943F
:104F1000059AFCF7D3FD681CC5B2082DD8DB601CD0
:104F2000C4B2302CCCDB57E0FFE71098203800F0FB
:104F3000FF0806EBD6700AEB6000401E82B20BEB56
:104F40000600401E83B2594650460296FDF7F0FF18
:104F50001298F0B9002419E0294800EB0810075D09
:104F600000250CE007F0010018B1244905980880DD
:104F700002E02249069808807F10681CC5B206EB43
:104F8000D671B5EB610FEDDB601CC4B2B442E3DB5C
:104F900022E000241EE01A4800EB0810075D0025FF
:104FA00011E018490598088007F0010040B10BEBAB
:104FB000040291B20AEB050290B2059AFCF77EFD5D
:104FC0007F10681CC5B206EBD671B5EB610FE8DB4C
:104FD000601CC4B2B442DEDB0B484088401E83B282
:104FE00009480088401E82B200210846FDF7A0FF54
:104FF00007B0BDE8F08F0000BD9D00080008006C00
:105000005DA000082A000020120700202DE9FE4FB5
:1050100005460F4690469946DDE90D6A0C9C1BE05B
:1050200011480088401EA84204DB0F484088401EFB
:10503000B84201DABDE8FE8F20784B464246394639
:105040008DE841042846FFF7F1FE304606EBD071AB
:1050500005EB61018DB2641C20787E2802DC20788B
:105060002028DDDA00BFE5E7120700202DE9FF4F19
:1050700083B004460E469246109F59E02F480088A0
:105080001838A04204DB2D4840883238B04202DA9A
:1050900007B0BDE8F08F3878413800F0FF0B06F11B
:1050A000310083B204F1170082B231462046FDF789
:1050B0003FFF4FF0000828E0CBEB0B1000EB800027
:1050C00008EB40001E49085C0190002517E0C5F17F
:1050D000070000F0FF09012000FA09F001990840DB
:1050E000012101FA09F1884202D1CDF808A001E0BE
:1050F00006980290134902980880681C85B2082D12
:10510000E5DB08F101001FFA80F8B8F1960FD3DB58
:105110000A484088401E83B208480088401E82B278
:1051200000210846FDF704FF04F1180084B27F1C3B
:1051300038780028A2D100BFAAE70000120700209B
:1051400013B400080008006C2DE9FF4F83B0064639
:1051500088469146DDE91147109DB2464FF0000B9D
:1051600074E0BBF1000F43D104EBD4713A4A1288CA
:10517000A2EB6101B14204DB37494988091B414573
:1051800002DA07B0BDE8F08F2878802802DD4FF002
:10519000010B5BE028780D2806D108EB04001FFA0C
:1051A00080F856466D1C21E02C48A0F80090102C89
:1051B0000DDD182128788DE883004A4641463046A7
:1051C000069BFFF733FE06F1100086B20EE028784A
:1051D0008DE891004A4641463046069BFFF726FE81
:1051E000204604EBD07106EB61018EB26D1C2DE000
:1051F00019480088001BB04204DB17484088001B98
:10520000404500DABDE74FF0000B202C08D1CDE976
:1052100000574A4641463046069BFCF70BFB12E01E
:10522000182C08D1CDE900574A4641463046069B26
:10523000FCF77AFA07E0CDE900574A464146304686
:10524000069BFCF7F3F9AD1C301986B228780028CC
:1052500087D100BF95E70000120700202A00002038
:1052600008B501211120FFF7C1FB0820ADF80000AF
:1052700028208DF8030069460148FDF74DFA08BD66
:105280000014014010B5FCF787F900F013F800F0A6
:105290000BFCFCF7EBFDFDF7D7F9FEF757FCFEF72B
:1052A00016FAFBF781FE40F635410520FDF7CCFAF2
:1052B00010BD000030B5144800684FF47A72B0FB9E
:1052C000F2F1B1F1807F00D31DE021F07F40401E5C
:1052D0004FF0E022506150170F22002807DA130721
:1052E0001D0E0A4B00F00F04241F1D5503E0130789
:1052F0001C0E074B1C5400BF00204FF0E0229061B1
:105300000720106100BF30BD0000002018ED00E054
:1053100000E400E010B503F033F804F073F803F094
:105320003FF810BD10B51348006840F00100114966
:10533000086008464068104908400E494860084621
:1053400000680E4908400B4908600846006820F4D0
:10535000802008600846406820F4FE0048604FF452
:105360001F008860FFF732FC4FF0006004490860BE
:1053700010BD0000001002400000FFF8FFFFF6FE25
:1053800008ED00E021B1028842F00102028004E051
:1053900002884FF6FE731A400280704770B50024F1
:1053A00000220023058C4FF6FF6635400584028CF1
:1053B0008388848B4FF68F752C404FF6FC752C40FC
:1053C0000D882C434FF6FF552A400D894FF6FF7686
:1053D00006EA05252A434D8806EA05252A43154D88
:1053E000A84202D0144DA8421DD14FF2FF752A40A9
:1053F0004D894FF6FF7606EA05252A434FF6FF351D
:105400002A408D8806EA05252A434EF6FF752B4073
:105410004DF6FF752B408D8906EA05152B43CD8986
:1054200006EA05152B4383808483CD888587028413
:1054300070BD0000002C0140003401400A460021EC
:10544000818B4FF6F7731940114381837047000039
:1054500070B5002200230024058C4EF6FF763540FF
:105460000584038C8488828B48F6FF752A404FF6AA
:10547000FF452A400D884FF6FF7606EA05252A43A8
:105480004DF6FF752B400D8906EA05352B434D88F7
:1054900006EA05352B430B4DA84202D00A4DA8421F
:1054A00008D14BF6FF752C408D894FF6FF7606EA42
:1054B00085152C4384808283CD88A0F840500384D6
:1054C00070BD0000002C0140003401400A4600215C
:1054D000818B4FF2FF7319404FF6FF7303EA0223EB
:1054E00019438183704781877047A0F84010704747
:1054F000002202881D4B98420ED01D4B98420BD0C3
:10550000B0F1804F08D01B4B984205D01A4B9842FF
:1055100002D01A4B984204D14FF68F731A404B8831
:105520001A43174B984207D0164B984204D04FF6B7
:10553000FF431A40CB881A4302808B8883850B88EF
:1055400003850A4B98420BD0094B984208D00E4B6A
:10555000984205D00D4B984202D00D4B984201D194
:105560000B7A03860123838270470000002C0140E0
:10557000003401400004004000080040000C0040DE
:105580000010004000140040004001400044014071
:10559000004801407CB50024002131A002F0F8FB56
:1055A000344908600846006810B933A002F06AFF69
:1055B00002204FF4FA7300223749009037A003F01D
:1055C00093FF3D490860002211463CA003F080FB98
:1055D0003E490860002211463DA003F079FB404996
:1055E00008603AE004EB44013E4A52F8310020A141
:1055F000FAF78BFE78B304EB44003A4901EBC000A4
:10560000406904EB4401374A02EBC101097C04EB19
:105610004405164606EBC505CDE90010EB6804EB22
:10562000440506EBC505AA6804EB440506EBC50571
:10563000696804EB440556F8350003F00EFD2A496D
:1056400008600846006818B10846006803F03EFE8E
:10565000601CC4B201E0FFE700E0C3E700BF7CBD0F
:10566000496E7370656374696F6E5F6576656E749D
:1056700000000000080300204576656E7420637208
:105680006561746564207375636365737366756CB7
:105690006C792E0A0000000025290008496E7370FD
:1056A000656374696F6E5F50726F63657373536F78
:1056B000667454696D6572006002002065786974D3
:1056C0005F726563765F73656D0000000003002004
:1056D000656E74725F726563765F73656D0000005E
:1056E00004030020680200206402002010B540F28C
:1056F00025511B4800F05AF8D8B1194800F012F9AA
:10570000C4B21848B0F80004C0F30E0040F2FF31F4
:1057100088420EDA1349B1F80014C1F30E00411C9F
:10572000104AB2F8002461F30E020E49A1F80024D9
:105730000C5440F224410A4800F038F801280DD1F9
:105740000848B0F8000420F4004000F50040054986
:10575000A1F80004024800F0E5F8C4B210BD000052
:10576000004800401003002001F40072B2F5007FF1
:1057700000D100BFCA430280704721B1828942F440
:105780000052828104E082894DF6FF731A408281C3
:10579000704702460020B1F5007F00D100BF13889A
:1057A0000B400BB1012000E00020704770B50246AD
:1057B000002400230025002040F66A16B14200D1E3
:1057C00000BFC1F3421501F01F03012606FA03F3DF
:1057D000012D02D19689334006E0022D02D1168AAE
:1057E000334001E0968A33400C12012606FA04F495
:1057F0001688344013B10CB1012000E0002070BDC8
:10580000F0B50346002400260025002040F66A1764
:10581000B94200D100BF1846C1F3421401F01F067F
:10582000012707FA06F5012C01D10C3004E0022C07
:1058300001D1103000E014301AB107682F4307601F
:1058400002E00768AF430760F0BD00002DE9F047B4
:1058500086B005460E460024A24600BFA14600279A
:10586000B08900B100BF2F462C8A4CF6FF7004406F
:10587000F08804432C82AC894EF6F3100440B088C3
:1058800031890843718908430443AC81AC8A4FF6DF
:10589000FF400440B0890443AC8201A8FFF7B6F88A
:1058A0001F48874202D1DDF810A001E0DDF80CA00E
:1058B000A88900F4004040B10AEBCA0000EB0A10CE
:1058C00031684900B0FBF1F807E00AEBCA0000EBD1
:1058D0000A1031688900B0FBF1F86420B8FBF0F0E1
:1058E00004012009642101FB1089A88900F400400B
:1058F00040B1322000EBC900B0FBF1F000F007002E
:10590000044308E0322000EB09106421B0FBF1F001
:1059100000F00F0004432C8106B0BDE8F0870000C2
:105920000038014001468888C0F308007047C1F381
:105930000802828070470FB470B586B006460CA886
:10594000019073E00B9800785C281CD10B98401CE8
:105950000B9000786E2809D072280FD10D213046A7
:10596000FFF7E5FF0B98401C0B900BE00A21304637
:10597000FFF7DDFF0B98401C0B9003E00B98401CD9
:105980000B9000BF4BE00B980078252840D10B9876
:10599000401C0B900078642818D0732833D10198EC
:1059A00010C801900BE021783046FFF7C0FF00BF20
:1059B00080213046FFF7EDFE0028F9D0641C2078E6
:1059C0000028F0D10B98401C0B9020E0019820C8D3
:1059D00001900A2202A9284601F060F902AC0BE00E
:1059E00021783046FFF7A3FF00BF80213046FFF744
:1059F000D0FE0028F9D0641C20780028F0D10B9844
:105A0000401C0B9003E00B98401C0B9000BF06E07D
:105A10000B9810F8011B0B903046FFF788FF00BF72
:105A200080213046FFF7B5FE0028F9D00B980078AA
:105A3000002887D106B070BC5DF814FB10B5044691
:105A40002068B0B12068804798B120796179884298
:105A500003DA2079401C207110BDA07AE8B901203A
:105A6000A072012204F10C010D48006802F0C7FF8A
:105A7000F2E7207918B12079401E2071ECE7A07A76
:105A8000012808D10020A072012204F10B01044872
:105A9000006802F0B4FF0020E08000BFDCE70000F7
:105AA0004C02002000BFFEE700B585B001210420B4
:105AB000FEF79CFF01214804FEF788FF18208DF8AF
:105AC00013000420ADF8100003208DF8120004A983
:105AD0001648FCF721FE04208DF813000820ADF8CD
